:020000040800F2
:100000000000022055390008753800087B380008C8
:1000100081380008873800088D380008000000008B
:1000200000000000000000000000000093380008FD
:10003000A138000800000000AF380008BD380008F3
:10004000A5390008A5390008A5390008A539000818
:10005000A5390008A5390008A5390008C9380008E5
:10006000D7380008A5390008E5380008A539000888
:10007000A5390008A5390008A5390008A5390008E8
:10008000A5390008A5390008A539000800000000BE
:10009000000000000000000000000000A53900087A
:1000A000A5390008A5390008A5390008A5390008B8
:1000B000A5390008A5390008A5390008A5390008A8
:1000C000A5390008A5390008A5390008A539000898
:1000D000A5390008A5390008A5390008000000006E
:1000E000A5390008A5390008A5390008000000005E
:1000F000000000000000000000000000A53900081A
:1001000000000000A5390008A5390008A53900083D
:1001100000000000000000000000000000000000DF
:10012000A5390008A5390008A5390008F5380008E8
:100130000939000800000000000000000000000075
:100140000000000000000000000000001D39000851
:10015000A5390008A5390008A5390008A539000807
:10016000A5390008A53900080000000000000000C3
:10017000000000000000000000000000000000007F
:1001800000000000A5390008000000000000000089
:08019000A5390008A53900089B
:1001980010B5054C237833B9044B13B10448AFF3B9
:1001A80000800123237010BDF00100200000000032
:1001B800F0C2000808B5034B1BB103490348AFF36D
:1001C800008008BD00000000F4010020F0C2000813
:1001D80081F0004102E000BF83F0004330B54FEAF0
:1001E80041044FEA430594EA050F08BF90EA020F5D
:1001F8001FBF54EA000C55EA020C7FEA645C7FEAF0
:10020800655C00F0E2804FEA5454D4EB5555B8BF12
:100218006D420CDD2C4480EA020281EA030382EA83
:10022800000083EA010180EA020281EA0303362D15
:1002380088BF30BD11F0004F4FEA01314FF4801CE8
:100248004CEA113102D0404261EB410113F0004FFA
:100258004FEA03334CEA133302D0524263EB4303B1
:1002680094EA050F00F0A780A4F10104D5F1200E4F
:100278000DDB02FA0EFC22FA05F2801841F10001AA
:1002880003FA0EF2801843FA05F359410EE0A5F17E
:1002980020050EF1200E012A03FA0EFC28BF4CF0AF
:1002A800020C43FA05F3C01851EBE37101F0004565
:1002B80007D54FF0000EDCF1000C7EEB00006EEB72
:1002C8000101B1F5801F1BD3B1F5001F0CD34908FC
:1002D8005FEA30004FEA3C0C04F101044FEA445253
:1002E80012F5800F80F09A80BCF1004F08BF5FEADA
:1002F800500C50F1000041EB045141EA050130BDBA
:100308005FEA4C0C404141EB0101013C28BFB1F5CB
:10031800801FE9D291F0000F04BF01460020B1FA16
:1003280081F308BF2033A3F10B03B3F120020CDAE9
:100338000C3208DD02F1140CC2F10C0201FA0CF0C7
:1003480021FA02F10CE002F11402D8BFC2F1200C2C
:1003580001FA02F120FA0CFCDCBF41EA0C019040E2
:10036800E41AA2BF01EB0451294330BD6FEA04042B
:100378001F3C1CDA0C340EDC04F11404C4F1200216
:1003880020FA04F001FA02F340EA030021FA04F328
:1003980045EA030130BDC4F10C04C4F1200220FA7F
:1003A80002F001FA04F340EA0300294630BD21FABD
:1003B80004F0294630BD94F0000F83F4801306BF83
:1003C80081F480110134013D4EE77FEA645C18BF77
:1003D8007FEA655C29D094EA050F08BF90EA020F0E
:1003E80005D054EA000C04BF1946104630BD91EA06
:1003F800030F1EBF0021002030BD5FEA545C05D109
:100408004000494128BF41F0004130BD14F5800447
:100418003CBF01F5801130BD01F0004545F0FE41BB
:1004280041F470014FF0000030BD7FEA645C1ABFF0
:10043800194610467FEA655C1CBF0B46024650EA27
:10044800013406BF52EA033591EA030F41F4002153
:1004580030BD00BF90F0000F04BF0021704730B5D9
:100468004FF4806404F132044FF000054FF00001AE
:1004780050E700BF90F0000F04BF0021704730B56F
:100488004FF4806404F1320410F0004548BF404244
:100498004FF000013EE700BF42004FEAE2014FEA99
:1004A80031014FEA02701FBF12F07F4393F07F4F74
:1004B80081F06051704732F07F4208BF704793F077
:1004C8007F4F04BF41F40021704730B54FF460748A
:1004D80001F0004521F000411CE700BF50EA01028D
:1004E80008BF704730B54FF000050AE050EA010236
:1004F80008BF704730B511F0004502D5404261EBA6
:1005080041014FF4806404F132045FEA915C3FF4E6
:10051800D8AE4FF003025FEADC0C18BF03325FEA83
:10052800DC0C18BF033202EBDC02C2F1200300FA34
:1005380003FC20FA02F001FA03FE40EA0E0021FA59
:1005480002F11444BDE600BF70B54FF0FF0C4CF447
:10055800E06C1CEA11541DBF1CEA135594EA0C0FF9
:1005680095EA0C0F00F0DEF82C4481EA030621EA34
:100578004C5123EA4C5350EA013518BF52EA03356F
:1005880041F4801143F4801338D0A0FB02CE4FF021
:100598000005E1FB02E506F00042E0FB03E54FF051
:1005A8000006E1FB03569CF0000F18BF4EF0010E49
:1005B800A4F1FF04B6F5007F64F5407404D25FEA45
:1005C8004E0E6D4146EB060642EAC62141EA5551F8
:1005D8004FEAC52040EA5E504FEACE2EB4F1FD0C3A
:1005E80088BFBCF5E06F1ED8BEF1004F08BF5FEAB8
:1005F800500E50F1000041EB045170BD06F000466A
:1006080046EA010140EA020081EA0301B4EB5C0416
:10061800C2BFD4EB0C0541EA045170BD41F480110E
:100628004FF0000E013C00F3AB8014F1360FDEBF33
:10063800002001F0004170BDC4F10004203C35DA0F
:100648000C341BDC04F11404C4F1200500FA05F392
:1006580020FA04F001FA05F240EA020001F0004233
:1006680021F0004110EBD37021FA04F642EB0601A9
:100678005EEA430E08BF20EAD37070BDC4F10C04D3
:10068800C4F1200500FA04F320FA05F001FA04F297
:1006980040EA020001F0004110EBD37041F1000183
:1006A8005EEA430E08BF20EAD37070BDC4F120058E
:1006B80000FA05F24EEA020E20FA04F301FA05F2F6
:1006C80043EA020321FA04F001F0004121FA04F29E
:1006D80020EA020000EBD3705EEA430E08BF20EA6E
:1006E800D37070BD94F0000F0FD101F000464000A8
:1006F80041EB010111F4801F08BF013CF7D041EA2A
:10070800060195F0000F18BF704703F0004652002D
:1007180043EB030313F4801F08BF013DF7D043EAFE
:100728000603704794EA0C0F0CEA135518BF95EAB4
:100738000C0F0CD050EA410618BF52EA4306D1D13B
:1007480081EA030101F000414FF0000070BD50EA5A
:10075800410606BF1046194652EA430619D094EAE4
:100768000C0F02D150EA013613D195EA0C0F05D1CE
:1007780052EA03361CBF104619460AD181EA030122
:1007880001F0004141F0FE4141F470014FF00000DA
:1007980070BD41F0FE4141F4780170BD70B54FF075
:1007A800FF0C4CF4E06C1CEA11541DBF1CEA1355F5
:1007B80094EA0C0F95EA0C0F00F0A7F8A4EB0504D7
:1007C80081EA030E52EA03354FEA013100F08880CE
:1007D8004FEA03334FF0805545EA131343EA126397
:1007E8004FEA022245EA111545EA10654FEA00264C
:1007F8000EF000419D4208BF964244F1FD0404F505
:10080800407402D25B084FEA3202B61A65EB030560
:100818005B084FEA32024FF480104FF4002CB6EB1D
:10082800020E75EB030E22BFB61A754640EA0C009D
:100838005B084FEA3202B6EB020E75EB030E22BFDD
:10084800B61A754640EA5C005B084FEA3202B6EB1E
:10085800020E75EB030E22BFB61A754640EA9C00DD
:100868005B084FEA3202B6EB020E75EB030E22BFAD
:10087800B61A754640EADC0055EA060E18D04FEA6B
:10088800051545EA16754FEA06164FEAC30343EA0B
:1008980052734FEAC2025FEA1C1CC0D111F4801FD8
:1008A8000BD141EA00014FF000004FF0004CB6E7D1
:1008B80011F4801F04BF01430020B4F1FD0C88BF70
:1008C800BCF5E06F3FF6AFAEB5EB030C04BFB6EB7B
:1008D800020C5FEA500C50F1000041EB045170BD6E
:1008E8000EF0004E4EEA113114EB5C04C2BFD4EB9B
:1008F8000C0541EA045170BD41F480114FF0000E1F
:10090800013C90E645EA060E8DE60CEA135594EA9A
:100918000C0F08BF95EA0C0F3FF43BAF94EA0C0F9D
:100928000AD150EA01347FF434AF95EA0C0F7FF412
:1009380025AF104619462CE795EA0C0F06D152EA66
:1009480003353FF4FDAE1046194622E750EA41064A
:1009580018BF52EA43067FF4C5AE50EA41047FF45B
:100968000DAF52EA43057FF4EBAE12E74FF0FF3CC0
:1009780006E000BF4FF0010C02E000BF4FF0010C91
:100988004DF804CD4FEA410C7FEA6C5C4FEA430C0A
:1009980018BF7FEA6C5C1BD001B050EA410C0CBF59
:1009A80052EA430C91EA030F02BF90EA020F0020BB
:1009B800704710F1000F91EA030F58BF994208BF22
:1009C80090422CBFD8176FEAE37040F001007047DF
:1009D8004FEA410C7FEA6C5C02D150EA013C07D136
:1009E8004FEA430C7FEA6C5CD6D152EA033CD3D081
:1009F8005DF8040B704700BF8446104662468C467B
:100A08001946634600E000BF01B5FFF7B7FF0028AD
:100A180048BF10F1000F01BD4DF808EDFFF7F4FFD6
:100A28000CBF012000205DF808FB00BF4DF808ED61
:100A3800FFF7EAFF34BF012000205DF808FB00BF84
:100A48004DF808EDFFF7E0FF94BF012000205DF8A6
:100A580008FB00BF4DF808EDFFF7CEFF94BF01205B
:100A680000205DF808FB00BF4DF808EDFFF7C4FF54
:100A780034BF012000205DF808FB00BF4FEA410C9D
:100A88007FEA6C5C02D150EA013C0AD14FEA430C80
:100A98007FEA6C5C02D152EA033C02D14FF00000BD
:100AA80070474FF0010070474FEA4102B2F1E0434E
:100AB80024BFB3F5001CDCF1FE5C0DD901F0004C3D
:100AC8004FEAC0024CEA5070B2F1004F40EB83008D
:100AD80008BF20F00100704711F0804F21D113F1B9
:100AE8003872BCBF01F00040704741F480114FEAF2
:100AF8005252C2F11802C2F1200C10FA0CF320FA7B
:100B080002F018BF40F001004FEAC1234FEAD32397
:100B180003FA0CFC40EA0C0023FA02F34FEA430301
:100B2800CCE77FEA625307D150EA01331EBF4FF08A
:100B3800FE4040F44000704701F0004040F0FE40A5
:100B480040F40000704700BF53B94AB9002908BFF4
:100B580000281CBF4FF0FF314FF0FF3000F06EB996
:100B6800ADF1080C6DE904CE00F006F8DDF804E0FC
:100B7800DDE9022304B070472DE9F047089D0446DB
:100B88008C46002B40F083808A42174647D9B2FA38
:100B980082F242B1C2F1200024FA00F0914097405D
:100BA80040EA010C94404FEA1748230CBCFBF8F6C6
:100BB8001FFA87FE08FB16C143EA014306FB0EF144
:100BC800994209D9FB1806F1FF3080F01981994242
:100BD80040F21681023E3B445B1AA4B2B3FBF8F024
:100BE80008FB103344EA034400FB0EFEA64509D96E
:100BF8003C1900F1FF3380F00581A64540F20281DF
:100C080002383C4440EA0640A4EB0E0400261DB11D
:100C1800D4400023C5E900433146BDE8F08702B956
:100C2800FFDEB2FA82F2002A50D1CB1B4FEA174EF0
:100C38001FFA87F80126B3FBFEFC210C0EFB1C33C0
:100C480041EA034108FB0CF38B4207D979180CF1F0
:100C5800FF3002D28B4200F2E9808446C91AA3B25F
:100C6800B1FBFEF00EFB101143EA014408FB00F84B
:100C7800A04507D93C1900F1FF3302D2A04500F284
:100C8800D9801846A4EB080440EA0C40BFE78B4221
:100C980009D9002D00F0B1800026C5E900013046D1
:100CA8003146BDE8F087B3FA83F6002E4AD18B426D
:100CB80002D3824200F2B880841A61EB030101205A
:100CC8008C46002DA8D0C5E9004CA5E7C2F1200349
:100CD80020FA03F6974001FA02F04FEA174ED9407E
:100CE8003043030CB1FBFEF61FFA87F80EFB161112
:100CF80043EA014306FB08F1994204FA02F409D9D0
:100D0800FB1806F1FF3C80F08D80994240F28A8002
:100D1800023E3B445B1A81B2B3FBFEF00EFB10337C
:100D280041EA034100FB08F38B4207D9791800F127
:100D3800FF3C73D28B4271D902383944CB1A40EA4E
:100D4800064678E7C6F1200C03FA06F422FA0CF3FB
:100D58001C4320FA0CF701FA06F34FEA144E21FA65
:100D68000CF11F433B0CB1FBFEF91FFA84F80EFB94
:100D7800191143EA014109FB08FA8A4502FA06F209
:100D880000FA06F308D9611809F1FF3048D28A45FC
:100D980046D9A9F102092144A1EB0A01BFB2B1FB6E
:100DA800FEF00EFB101147EA014700FB08F8B845B2
:100DB80007D9E71900F1FF312ED2B8452CD90238EE
:100DC800274440EA0940A7EB0807A0FB02894F45E2
:100DD800C64649461AD317D05DB1B3EB0E0267EB8E
:100DE800010707FA0CFCF2404CEA0202F740C5E999
:100DF800002700263146BDE8F0872E4628460BE737
:100E08000646E9E61846FDE64345E5D2B8EB020E8C
:100E180069EB04010138DFE70846D2E760468DE751
:100E28008146B9E7664675E730464AE7ACF1020CF9
:100E3800394413E702383C4424E700BF704700BF39
:100E480080B5AEB000AF87ED090AC7ED080A87ED97
:100E5800071AC7ED061A87ED052AC7ED042A87ED9C
:100E6800033AC7ED023A87ED014AD7ED037AF5EE6A
:100E7800407AF1EE10FA1DD1D7ED027AF5EE407AFC
:100E8800F1EE10FA16D1D7ED017AF5EE407AF1EECF
:100E980010FA0FD1D7ED042A97ED052AD7ED061AD7
:100EA80097ED071AD7ED080A97ED090A00F0DEFE5C
:100EB80000F0CCBEE64BD3ED007AB1EE677AD7ED01
:100EC800097A27EE277AE34BD3ED006AD7ED087A43
:100ED80066EEA77A37EE677ADF4BD3ED006AD7ED77
:100EE800077A66EEA77A77EE677AB6EE007A67EE4B
:100EF800877AC7ED2D7AD94B93ED007AD7ED097A29
:100F080027EE277AD34BD3ED006AD7ED077A66EE42
:100F1800A77A37EE277AD04BD3ED006AD7ED087A57
:100F280066EEA77A77EE677AB6EE007A67EE877A8A
:100F3800C7ED2C7AC94B93ED007AD7ED087A27EEE6
:100F4800277AC34BD3ED006AD7ED077A66EEA77A06
:100F580037EE677AC04BD3ED006AD7ED097A66EEB3
:100F6800A77A77EE277AB6EE007A67EE877AC7ED2A
:100F78002B7ABA4B93ED007AD7ED077A27EE277ACA
:100F8800B34BD3ED006AD7ED087A66EEA77A37EE51
:100F9800277AB04BD3ED006AD7ED097A66EEA77AC7
:100FA80077EE677AB6EE007A67EE877AC7ED2A7A27
:100FB800D7ED067AF5EE407AF1EE10FA0ED1D7EDBC
:100FC800057AF5EE407AF1EE10FA07D1D7ED047AFA
:100FD800F5EE407AF1EE10FA00F0AC85D7ED067A1E
:100FE80027EEA77AD7ED057A67EEA77A37EE277A44
:100FF800D7ED047A67EEA77A77EE277AB0EE670A1C
:1010080001F058F987ED290A97ED067AD7ED297A84
:1010180067EE277AC7ED067A97ED057AD7ED297A34
:1010280067EE277AC7ED057A97ED047AD7ED297A26
:1010380067EE277AC7ED047AD7ED037A27EEA77A09
:10104800D7ED027A67EEA77A37EE277AD7ED017ADD
:1010580067EEA77A77EE277AB0EE670A01F02AF9E9
:1010680087ED290A97ED037AD7ED297A67EE277A73
:10107800C7ED037A97ED027AD7ED297A67EE277ADA
:10108800C7ED027A97ED017AD7ED297A67EE277ACC
:10109800C7ED017A714BD3ED007A77EEA77A97ED19
:1010A800037A67EE277AC7ED287A6C4BD3ED007A7E
:1010B80077EEA77A97ED027A67EE277AC7ED277A57
:1010C800664BD3ED007A77EEA77A97ED017A67EE53
:1010D800277AC7ED267A5E4BD3ED007A77EEA77AAA
:1010E80097ED037A67EE277AC7ED257A5B4BD3ED48
:1010F800007A77EEA77AC7ED247A554BD3ED007ABC
:1011080077EEA77AC7ED237A524BD3ED007A77EEC4
:10111800A77AC7ED227A504BD3ED007A77EEA77AFB
:10112800C7ED217A4D4BD3ED007A37EEA77A494BBC
:10113800D3ED007A67EE277AC7ED207A454BD3EDD9
:10114800007A37EEA77A444BD3ED007A67EE277A18
:10115800C7ED1F7A414B93ED007A404BD3ED007AEF
:1011680067EE277AC7ED1E7A3C4B93ED007A384B31
:10117800D3ED007A67EE277AC7ED1D7A374B93EDEA
:10118800007A344BD3ED007A67EE277AC7ED1C7AE4
:10119800324B93ED007A304BD3ED007A67EE277A25
:1011A800C7ED1B7A2A4B93ED007A294BD3ED007AD1
:1011B80067EE277AC7ED1A7A254B93ED007A254B0F
:1011C800D3ED007A67EE277AC7ED197A204B93EDB5
:1011D800007A214BD3ED007A67EE277AC7ED187AAB
:1011E8001C4B93ED007A1B4BD3ED007A67EE277A00
:1011F800C7ED177A174B93ED007A174BD3ED007AAA
:1012080067EE277AC7ED167A134B93ED007A124BE7
:10121800D3ED007A67EE277AC7ED157A97ED037A52
:10122800D7ED1E7A27EE277A0B4BD3ED006AD7ED60
:10123800277A66EEA77A37EE677A064BD3ED006A0F
:10124800D7ED267A66EEA77A37EE277A08E000BF50
:101258000C020020100200201402002004000020CC
:10126800D7ED036AD7ED1A7A66EEA77A37EE277AB2
:10127800D7ED236AD7ED027A66EEA76AF54BD3ED70
:10128800007A66EEA77A37EE277AD7ED236AD7ED8C
:10129800017A66EEA76AF04BD3ED007A66EEA77A7C
:1012A80037EE277AD7ED036AD7ED177A66EEA77A75
:1012B80037EE677AD7ED036AD7ED157A66EEA77A27
:1012C80077EE677AC7ED147AE34B93ED007AD7EDA2
:1012D800287A27EE277AD7ED026AD7ED1E7A66EECE
:1012E800A77A37EE277ADD4BD3ED006AD7ED267A59
:1012F80066EEA77A37EE677AD64BD3ED006AD7ED5C
:10130800257A66EEA77A37EE277AD7ED026AD7ED07
:101318001A7A66EEA77A37EE677AD7ED026AD7EDC2
:10132800177A66EEA77A37EE277AD7ED226AD7EDD5
:10133800017A66EEA76AC84BD3ED007A66EEA77A03
:1013480037EE277AD7ED026AD7ED157A66EEA77AD7
:1013580077EE677AC7ED137AD7ED147A27EEA77A76
:10136800D7ED137A67EEA77A77EE277A17EE900A09
:10137800FFF792F802460B4643EC102B0AF038FAB6
:1013880053EC102B10461946FFF78EFB0346BB643F
:10139800D7ED287AB1EE677AAE4BD3ED007A27EE17
:1013A800277AAE4BD3ED006AD7ED277A66EEA77A97
:1013B80037EE277AD7ED016AD7ED1E7A66EEA77A5F
:1013C80037EE277AA44BD3ED006AD7ED257A66EE7F
:1013D800A77A37EE277AD7ED016AD7ED1A7A66EE43
:1013E800A77A37EE677AD7ED226AD7ED027A66EEEA
:1013F800A76A994BD3ED007A66EEA77A37EE277A7B
:10140800D7ED016AD7ED177A66EEA77A37EE677AD5
:10141800D7ED016AD7ED157A66EEA77A77EE277AC7
:10142800C7ED117AD7ED127A77EEA77AC7ED107A61
:10143800D7ED117A77EEA77AC7ED0F7AD7ED227A32
:10144800B1EE677AD7ED187A77EEA76AD7ED207AEA
:1014580076EEE76AD7ED067A76EEE77A27EE277A10
:10146800D7ED1D7A77EEA76AD7ED1F7A76EEA76AD1
:10147800D7ED057A76EEE76AD7ED237A66EEA77A96
:1014880037EE277A734BD3ED006AD7ED117A66EE03
:10149800A76AB6EE006AD7ED177A36EE676AD7ED17
:1014A800157A36EE676AD7ED127A26EE276AD7EDF7
:1014B800185AD7ED1C7A75EEE75AD7ED117A65EE12
:1014C800A77A36EE276AD7ED037A76EE677A66EE64
:1014D800A77A37EE677AD7ED127AF1EE676A5E4B34
:1014E800D3ED007A66EEA76A5C4B93ED006AD7ED00
:1014F800117A66EE277A76EEA76A97ED196AD7ED24
:101508001B7A36EE676AD7ED127A26EE276AD7ED90
:101518001D5AD7ED167A75EEA75AD7ED117A65EEF2
:10152800A77A36EE276AD7ED027A76EE677A66EE04
:10153800A77A37EE277A474BD3ED006AD7ED127AB0
:1015480066EEA76A97ED1C6AD7ED187A36EE276A19
:10155800D7ED127A26EE276AF6EE005AD7ED1A7AF8
:1015680075EEE75AD7ED177A75EEE75AD7ED117A87
:1015780065EEA77A36EE276AD7ED017A76EE677AB6
:1015880066EEA77A77EE277AC7ED0E7AD7ED187A46
:1015980037EEA77AD7ED207A37EE677AD7ED067A55
:1015A80037EE677AD7ED217A27EE277AD7ED1D7ABD
:1015B80077EEA76AD7ED1F7A76EEA76AD7ED057A98
:1015C80076EEE76AD7ED247A66EEA77A37EE277AC1
:1015D800224BD3ED007AF1EE006A67EEA66AD7EDEA
:1015E8001A7A77EEA77AB7EE006A36EE676AD7ED11
:1015F800177A77EEA77A36EE676AD7ED047A76EE31
:10160800677A66EEA77A37EE677A134BD3ED006AEE
:10161800D7ED117A66EEA76AB6EE006AD7ED177AAB
:1016280036EE676AD7ED157A36EE676AD7ED127A25
:1016380026EE276AD7ED185AD7ED1C7A75EEE75AC9
:10164800D7ED117A65EEA77A36EE276AD7ED037AD9
:1016580006E000BF10020020140200200C02002047
:1016680076EE677A66EEA77A37EE277AF64BD3EDF1
:10167800006AD7ED127A66EEA76AF44B93ED006A1A
:10168800D7ED117A66EE277A76EEA76A97ED196A92
:10169800D7ED1B7A36EE676AD7ED127A26EE276AFF
:1016A800D7ED1D5AD7ED167A75EEA75AD7ED117AF0
:1016B80065EEA77A36EE276AD7ED027A76EE677A74
:1016C80066EEA77A37EE277AE14BD3ED006AD7EDBD
:1016D800127A66EEA76ADF4B93ED006AD7ED0F7AB0
:1016E80066EE277A76EEE76A97ED1C6AD7ED187AE8
:1016F80036EE276AD7ED127A26EE276AF6EE005AFA
:10170800D7ED1A7A75EEE75AD7ED177A75EEE75ADC
:10171800D7ED117A65EEA77A36EE276AD7ED017A0A
:1017280076EE677A66EEA77A77EE277AC7ED0D7AB6
:10173800D7ED247AB1EE677AD7ED187A77EEA76AF3
:10174800D7ED207A76EEE76AD7ED067A76EEE77A75
:1017580027EE277AD7ED1D7A77EEA76AD7ED1F7A9D
:1017680076EEA76AD7ED057A76EEE76AD7ED217AA5
:1017780066EEA77A37EE277AB34BD3ED007AF1EE0F
:10178800006A67EEA66AD7ED1A7A77EEA77AB7EEFF
:10179800006A36EE676AD7ED177A77EEA77A36EEE3
:1017A800676AD7ED047A76EE677A66EEA77A37EE3F
:1017B800677AD7ED107AF1EE676AA34BD3ED007A1A
:1017C80066EEA76AA14B93ED006AD7ED117A66EE33
:1017D800277A76EEE76AB6EE006AD7ED177A36EE24
:1017E800676AD7ED157A36EE676AD7ED127A26EE74
:1017F800276AD7ED185AD7ED1C7A75EEE75AD7ED58
:10180800117A65EEA77A36EE276AD7ED037A76EE77
:10181800677A66EEA77A37EE277A8E4BD3ED006AA1
:10182800D7ED127A66EEA76A894B93ED006AD7ED79
:10183800117A66EE277A76EEA76A97ED196AD7EDE0
:101848001B7A36EE676AD7ED127A26EE276AD7ED4D
:101858001D5AD7ED167A75EEA75AD7ED117A65EEAF
:10186800A77A36EE276AD7ED027A76EE677A66EEC1
:10187800A77A37EE277A754BD3ED006AD7ED127A3F
:1018880066EEA76A704B93ED006AD7ED0F7A66EEA5
:10189800277A76EEE76A97ED1C6AD7ED187A36EE66
:1018A800276AD7ED127A26EE276AF6EE005AD7EDA8
:1018B8001A7A75EEE75AD7ED177A75EEE75AD7ED2B
:1018C800117A65EEA77A36EE276AD7ED017A76EEB9
:1018D800677A66EEA77A77EE277AC7ED0C7AD7EDA6
:1018E800187A37EEA77AD7ED207A37EE677AD7EDF0
:1018F800067A37EE677AD7ED237A27EE277AD7ED7F
:101908001D7A77EEA76AD7ED1F7A76EEA76AD7ED2C
:10191800057A76EEE76AD7ED227A66EEA77A37EE91
:10192800277AD7ED107AF1EE676A494BD3ED007A42
:1019380066EEA76A474B93ED006AD7ED117A66EE1B
:10194800277A76EEA76AB6EE006AD7ED177A36EEF2
:10195800676AD7ED157A36EE676AD7ED127A26EE02
:10196800276AD7ED185AD7ED1C7A75EEE75AD7EDE6
:10197800117A65EEA77A36EE276AD7ED037A76EE06
:10198800677A66EEA77A37EE277AD7ED127AF1EE04
:10199800676A2E4BD3ED007A66EEA76A2A4B93ED61
:1019A800006AD7ED117A66EE277A76EEA76A97ED88
:1019B800196AD7ED1B7A36EE676AD7ED127A26EEEA
:1019C800276AD7ED1D5AD7ED167A75EEA75AD7EDC7
:1019D800117A65EEA77A36EE276AD7ED027A76EEA7
:1019E800677A66EEA77A37EE277A1A4BD3ED006A44
:1019F800D7ED127A66EEA76A97ED1C6AD7ED187ACA
:101A080036EE276AD7ED127A26EE276AF6EE005AE6
:101A1800D7ED1A7A75EEE75AD7ED177A75EEE75AC9
:101A2800D7ED117A65EEA77A36EE276AD7ED017AF7
:101A380076EE677A66EEA77A77EE277AC7ED0B7AA5
:101A4800D7ED0E7A08E000BF100200200400002045
:101A5800140200200C02002027EEA77AD7ED0D7A99
:101A680067EEA77A37EE277AD7ED0C7A67EEA77A72
:101A780037EE277AD7ED0B7A67EEA77A77EE277AD3
:101A8800B0EE670A00F016FC87ED290A97ED0E7A8A
:101A9800D7ED297A67EE277AC7ED0E7A97ED0D7A9A
:101AA800D7ED297A67EE277AC7ED0D7A97ED0C7A8C
:101AB800D7ED297A67EE277AC7ED0C7A97ED0B7A7E
:101AC800D7ED297A67EE277AC7ED0B7A614B93ED4C
:101AD800007AD7ED0E7A67EE277A97ED2D7A77EEB2
:101AE800677AC7ED2D7A5B4B93ED007AD7ED0D7AC7
:101AF80067EE277A97ED2C7A77EE677AC7ED2C7A1E
:101B0800544B93ED007AD7ED0C7A67EE277A97ED70
:101B18002B7A77EE677AC7ED2B7A4E4B93ED007AE6
:101B2800D7ED0B7A67EE277A97ED2A7A77EE677A00
:101B3800C7ED2A7AD7ED2D7A9FED477A27EE877A77
:101B4800464BD3ED007A77EE277A444BC3ED007A03
:101B5800D7ED2C7A9FED407A27EE877A404BD3ED6C
:101B6800007A77EE277A3E4BC3ED007AD7ED2B7AD1
:101B78009FED397A27EE877A3A4BD3ED007A77EEE4
:101B8800277A384BC3ED007AD7ED2A7A9FED327A5F
:101B980027EE877A344BD3ED007A77EE277A324BEB
:101BA800C3ED007A2D4B93ED007A2C4BD3ED007AE0
:101BB80027EE277A2A4BD3ED006A294BD3ED007A1A
:101BC80066EEA77A37EE277A264BD3ED006A254BC7
:101BD800D3ED007A66EEA77A37EE277A224BD3ED5B
:101BE800006A214BD3ED007A66EEA77A77EE277A62
:101BF800B0EE670A00F05EFB87ED290A174B93EDFC
:101C0800007AD7ED297A67EE277A144BC3ED007A6C
:101C1800134B93ED007AD7ED297A67EE277A104BAC
:101C2800C3ED007A0F4B93ED007AD7ED297A67EE72
:101C3800277A0C4BC3ED007A0B4B93ED007AD7ED66
:101C4800297A67EE277A084BC3ED007AB837BD4684
:101C580080BD00BF000000200AD7A33B040000207D
:101C68000C020020100200201402002080B59CB055
:101C780000AF87ED050AC7ED040A87ED031AC7ED23
:101C8800021A87ED012AC7ED002AEE4BD3ED007A40
:101C9800B1EE677AD7ED057A27EE277AEA4BD3EDCE
:101CA800006AD7ED047A66EEA77A37EE677AE74BD3
:101CB800D3ED006AD7ED037A66EEA77A77EE677AF6
:101CC800B6EE007A67EE877AC7ED1B7AE04B93EDA4
:101CD800007AD7ED057A27EE277ADB4BD3ED006A39
:101CE800D7ED037A66EEA77A37EE277AD74BD3ED8E
:101CF800006AD7ED047A66EEA77A77EE677AB6EED1
:101D0800007A67EE877AC7ED1A7AD14B93ED007A9D
:101D1800D7ED047A27EE277ACA4BD3ED006AD7EDC0
:101D2800037A66EEA77A37EE677AC84BD3ED006A76
:101D3800D7ED057A66EEA77A77EE277AB6EE007ABF
:101D480067EE877AC7ED197AC14B93ED007AD7ED24
:101D5800037A27EE277ABB4BD3ED006AD7ED047AD6
:101D680066EEA77A37EE277AB74BD3ED006AD7ED40
:101D7800057A66EEA77A77EE677AB6EE007A67EEAE
:101D8800877AC7ED187AD7ED027AF5EE407AF1EE48
:101D980010FA0ED1D7ED017AF5EE407AF1EE10FA8D
:101DA80007D1D7ED007AF5EE407AF1EE10FA00F09F
:101DB800E581D7ED027A27EEA77AD7ED017A67EEAB
:101DC800A77A37EE277AD7ED007A67EEA77A77EE0B
:101DD800277AB0EE670A00F06DFA87ED170A97EDDB
:101DE800027AD7ED177A67EE277AC7ED027A97ED70
:101DF800017AD7ED177A67EE277AC7ED017A97ED62
:101E0800007AD7ED177A67EE277AC7ED007A904BFC
:101E1800D3ED007A77EEA77AC7ED167A894BD3ED22
:101E2800007A77EEA77AC7ED157A874BD3ED007A5B
:101E380077EEA77AC7ED147A844BD3ED007A77EE64
:101E4800A77AC7ED137A824BD3ED007AB1EE007A08
:101E580067EE877AC7ED127A7A4BD3ED007AB1EE46
:101E6800007A67EE877AC7ED117A774BD3ED007A5F
:101E7800B1EE007A67EE877AC7ED107A714BD3ED31
:101E8800007AB2EE007A67EE877AC7ED0F7A6E4B6A
:101E9800D3ED007AB2EE007A67EE877AC7ED0E7A54
:101EA8006B4B93ED007A6A4BD3ED007A67EE277A95
:101EB800C7ED0D7A634B93ED007A624BD3ED007A50
:101EC80067EE277AC7ED0C7A5F4B93ED007A5E4B8D
:101ED800D3ED007A67EE277AC7ED0B7A5B4B93ED6B
:101EE800007A5A4BD3ED007A67EE277AC7ED0A7A63
:101EF80097ED127AD7ED0B7A27EE277AD7ED146A89
:101F0800D7ED027A66EEA77A37EE277AD7ED126A0E
:101F1800D7ED0C7A66EEA77A37EE277AD7ED156AF1
:101F2800D7ED017A66EEA77A77EE677AC7ED097A78
:101F380097ED117AD7ED0A7A27EE277AD7ED136A4B
:101F4800D7ED027A66EEA77A37EE677AD7ED0D7A83
:101F5800F1EE006A67EEA66A3A4BD3ED007A66EEB8
:101F6800A77A37EE277AD7ED166AD7ED017A66EEAB
:101F7800A77A37EE677AD7ED117A37EE677AD7ED19
:101F88000F6AD7ED0C7A66EEA77A37EE277AD7ED87
:101F98000F6AD7ED0B7A66EEA77A37EE277AD7ED78
:101FA800116AD7ED007A66EEA77A77EE277AC7ED41
:101FB800087AD7ED0D7AB1EE007A27EE877A224BB0
:101FC800D3ED007A27EE277AD7ED166AD7ED027A95
:101FD80066EEA77A37EE277AD7ED106AD7ED0A7A38
:101FE80066EEA77A37EE277AD7ED136AD7ED017A2E
:101FF80066EEA77A37EE677AD7ED107A37EE677A0A
:10200800D7ED0E6AD7ED0C7A66EEA77A37EE277A07
:10201800D7ED0E6AD7ED0B7A66EEA77A37EE277AF8
:10202800D7ED106AD7ED007A66EEA77A77EE277AB1
:10203800C7ED077AD7ED0C7AB1EE007A27EE877AEA
:1020480008E000BF0C02002010020020140200204B
:1020580004000020914BD3ED007A27EE277AD7EDC4
:10206800156AD7ED027A66EEA77A37EE677AD7ED6A
:102078000B7AF1EE006A67EEA66A884BD3ED007A18
:1020880066EEA77A37EE277AD7ED146AD7ED017A8C
:1020980066EEA77A77EE677AC7ED067AD7ED097A02
:1020A80027EEA77AD7ED087A67EEA77A37EE277A70
:1020B800D7ED077A67EEA77A37EE277AD7ED067A53
:1020C80067EEA77A77EE277AB0EE670A00F0F2F8A3
:1020D80087ED170A97ED097AD7ED177A67EE277A11
:1020E800C7ED097A97ED087AD7ED177A67EE277A60
:1020F800C7ED087A97ED077AD7ED177A67EE277A52
:10210800C7ED077A97ED067AD7ED177A67EE277A43
:10211800C7ED067A624B93ED007AD7ED097A67EE40
:10212800277A97ED1B7A77EE677AC7ED1B7A5C4BB7
:1021380093ED007AD7ED087A67EE277A97ED1A7A49
:1021480077EE677AC7ED1A7A554B93ED007AD7ED9B
:10215800077A67EE277A97ED197A77EE677AC7EDEF
:10216800197A4F4B93ED007AD7ED067A67EE277A06
:1021780097ED187A77EE677AC7ED187AD7ED1B7A5C
:102188009FED487A27EE877A474BD3ED007A77EEB2
:10219800277A454BC3ED007AD7ED1A7A9FED417A3D
:1021A80027EE877A414BD3ED007A77EE277A3F4BBB
:1021B800C3ED007AD7ED197A9FED3A7A27EE877A40
:1021C8003B4BD3ED007A77EE277A394BC3ED007A93
:1021D800D7ED187A9FED337A27EE877A2F4BD3ED18
:1021E800007A77EE277A2D4BC3ED007A2E4B93EDCC
:1021F800007A2D4BD3ED007A27EE277A2B4BD3EDBF
:10220800006A2A4BD3ED007A66EEA77A37EE277A72
:10221800274BD3ED006A264BD3ED007A66EEA77AFA
:1022280037EE277A1D4BD3ED006A1C4BD3ED007AAD
:1022380066EEA77A77EE277AB0EE670A00F03AF8EA
:1022480087ED170A184B93ED007AD7ED177A67EEEA
:10225800277A154BC3ED007A144B93ED007AD7ED2E
:10226800177A67EE277A114BC3ED007A104B93ED7E
:10227800007AD7ED177A67EE277A0D4BC3ED007A0F
:10228800064B93ED007AD7ED177A67EE277A034B62
:10229800C3ED007A00BF7037BD4680BD1402002030
:1022A800000000200AD7A33B040000200C020020F5
:1022B8001002002080B487B000AF87ED010AD7ED87
:1022C800017AB6EE007A67EE877AC7ED057A7B6801
:1022D8003B6107F110031B68FB60FB685A10124B47
:1022E8009B1AFB6007F10C031B683B6197ED047AAE
:1022F800D7ED057A27EE277AD7ED047A67EE277AA5
:10230800B7EE087A37EE677AD7ED047A67EE277A60
:10231800C7ED047A3B6907EE903AB0EE670A1C37BE
:10232800BD465DF8047B7047DF59375F80B586B0DE
:1023380004AF0346FB710B46BB7113467B71FB79F7
:102348005B00FB71FB7999B2BB799AB20A230293BD
:10235800012301937B1D00930123044802F0ACFA8A
:10236800034618460837BD4680BD00BF3406002026
:1023780080B586B004AF3A601A460346FB710B4637
:10238800BB7113467B717B79012B06D9FB79192B1D
:1023980003D1BB7963F07F03BB71FB795B00FB71F1
:1023A800FB7999B2BB7998B27B799BB27A79029220
:1023B80001933B68009301230246034802F076FB31
:1023C80000BF0837BD4680BD3406002080B586B002
:1023D80002AF0346FB71FB7963F07F03FB71FB7966
:1023E8009BB2FB8100220821124802F0EFF807F1A6
:1023F8000C0207F10E010223009301230E4805F099
:102408008FF907F10E01013107F10C0201320223A5
:1024180000930123084805F083F9012208210548A3
:1024280002F0D4F8BB891B0A9BB2DBB218461037FE
:10243800BD4680BD00100240000A002080B584B06F
:1024480000AF03460A46FB711346BB71FB791AB20B
:10245800BB791B021BB213431BB29BB2FB81002248
:1024680008210D4802F0B2F807F10E0102230122FB
:102478000A4804F008FF07F10E0101310223012286
:10248800064804F000FF01220821034802F09EF8E4
:1024980000BF1037BD4680BD00100240000A002072
:1024A80080B582B000AF03463960FB711346BB713B
:1024B800FB7963F03F03DBB2FB71002208210C4873
:1024C80002F084F8F91D0A2301220A4804F0DBFE11
:1024D800BB799AB2BB793968064805F010F8012231
:1024E8000821034802F072F800BF0837BD4680BDD6
:1024F80000100240000A002080B500AF0022212110
:102508001920FFF713FF002224211920FFF70EFFDF
:10251800002225211920FFF709FF00222621192072
:10252800FFF704FF672220211920FFF7FFFE08228A
:1025380023211920FFF7FAFE102222211920FFF784
:10254800F5FE00BF80BD80B500AF0C2260211E20C3
:10255800FFF7ECFE002261211E20FFF7E7FE0122B3
:1025680062211E20FFF7E2FEE52263211E20FFF70D
:10257800DDFE00BF80BD80B582B000AF0F20FFF741
:1025880025FF0346FB71FB79D42B03D0FB79D32BB2
:1025980000D0FEE700212120FFF750FF082122206C
:1025A800FFF74CFF10212320FFF748FF00212520CB
:1025B800FFF744FF00212E20FFF740FF00213220C3
:1025C800FFF73CFF00213320FFF738FF00213420BC
:1025D800FFF734FF00213520FFF730FF00213620B8
:1025E800FFF72CFF00213720FFF728FF00213820B4
:1025F800FFF724FF00213020FFF720FF00212420CF
:10260800FFF71CFF5F212020FFF718FF0F21202074
:10261800FFF714FF00BF0837BD4680BD80B586B000
:1026280000AFF860B9607A60FB6893ED007AFB68E8
:10263800D3ED007A27EE277ABB68D3ED006ABB6832
:10264800D3ED007A66EEA77A37EE277A7B68D3ED6A
:10265800006A7B68D3ED007A66EEA77A77EE277A70
:1026680017EE900AFDF718FF02460B4643EC102BB5
:1026780009F0BEF853EC102B10461946FEF714FA71
:1026880003467B61FB68D3ED006A97ED057AC6EED9
:10269800877AFB68C3ED007ABB68D3ED006A97EDD3
:1026A800057AC6EE877ABB68C3ED007A7B68D3EDFE
:1026B800006A97ED057AC6EE877A7B68C3ED007AE3
:1026C80000BFB0EE670A1837BD4680BD80B483B03E
:1026D80000AF78600B467B8013467B707B685A6836
:1026E800B7F9023013447A68127811467A680431CF
:1026F80032F911209A1A7B685A607B681B781A464F
:102708007B680432798823F812107B681B780133C0
:10271800DAB27B681A707B783C2B01D93C237B703A
:102728007B681B787A789A4202D87B6800221A70F4
:102738007B685A687B7892FBF3F31AB27B685A80FD
:102748007B68B3F9023018460C37BD465DF8047B48
:102758007047000080B588B000AF01224FF4804177
:10276800494801F033FF0023FB610023BB610023CC
:102778007B6100233B610023FB600023BB600023D7
:102788007B602FE0414BB3F900301A46FB691344D4
:10279800FB613E4BB3F902301A46BB691344BB6177
:1027A8003A4BB3F904301A467B6913447B61384BC2
:1027B800B3F900301A463B6913443B61344BB3F913
:1027C80002301A46FB681344FB60314BB3F90430FE
:1027D8001A46BB681344BB60062001F053F97B68B6
:1027E80001337B607B68B3F5C87FCBDB3B69294A43
:1027F80082FB0312D211DB17D31A1AB2264B1A84A2
:10280800FB68244A82FB0312D211DB17D31A1AB2CF
:10281800214B5A84BB681F4A82FB0312D211DB1773
:10282800D31A1AB21C4B9A84FB691A4A82FB031208
:10283800D211DB17D31A1AB2174B1A80BB69154A83
:1028480082FB0312D211DB17D31A1AB2124B5A8029
:102858007B69104A82FB0312D211DB17D31A1AB212
:102868000D4B9A8000224FF48041074801F0AEFEDC
:102878000A4B4FF000021A62084B4FF000025A62EE
:1028880000BF2037BD4680BD000C0240900A0020E2
:10289800580A00201F85EB51680A0020380B0020D9
:1028A80080B582B000AF0346FB80FB88022B08D1BD
:1028B800062212492820FFF7F3FD114B01221A7056
:1028C80018E0FB88102B09D106230E4A282119206D
:1028D800FFF74EFD0C4B01221A700BE0FB88042B0E
:1028E80008D10623094A68211E20FFF741FD084B3D
:1028F80001221A7000BF0837BD4680BD900A00202B
:1029080018020020580A0020190200201008002090
:102918001A02002000000000B0B58AB000AF01F034
:102928003FF800F0B7FB00F0DBFC00F01BFC00F008
:1029380047FC00F0ADFC00F079FC08F0CDF9A24BA3
:102948001B681A68A04B1B6842F001021A609F4B73
:102958001B681A689D4B1B6842F040021A609C4B2A
:102968001B681A689A4B1B6842F040021A603220B2
:1029780001F088F8FFF7C0FDFFF7E5FDFFF7FBFD65
:10298800062294492820FFF78BFD0623924A282126
:102998001920FFF7EDFC0623904A68211E20FFF757
:1029A800E7FC8F4B00221A848D4B00225A848C4BF3
:1029B80000229A848A4B00221A80894B00225A806E
:1029C800874B00229A80864B4FF000029A60844B16
:1029D8004FF00002DA60824B4FF000021A61804B20
:1029E8004FF07E525A617E4B4FF07E529A617C4B7B
:1029F8004FF07E52DA61FFF7ADFE7A4B1B78DBB2FF
:102A0800002B2ED0754BB3F900300A2219467648B0
:102A1800FFF75CFE03461A46744B1A806F4BB3F9F6
:102A280002300A2219467248FFF750FE03461A463A
:102A38006E4B5A80694BB3F904300A2219466D4827
:102A4800FFF744FE03461A46684B9A80654B0022FE
:102A58001A70694B4AF6AB221A603421664808F0AE
:102A6800F9F9664B1B78DBB2002B40D05C4B1B8C12
:102A780019B2594BB3F900309AB28BB2D31A9BB240
:102A88001AB2554B1A80564B5B8C19B2524BB3F99C
:102A980002309AB28BB2D31A9BB21AB24E4B5A80FA
:102AA8004D4BB3F90030322219465548FFF70EFE58
:102AB80003461A46534B1A80474BB3F90230322269
:102AC80019465148FFF702FE03461A464D4B5A80F5
:102AD800414BB3F90430322219464C48FFF7F6FD52
:102AE80003461A46474B9A80444B00221A70484BBB
:102AF8001B78DBB2002B80D0394B1B8819B2354BC1
:102B0800B3F900309AB28BB2D31A9BB21AB2314BD6
:102B18001A80334B5B8819B22E4BB3F902309AB244
:102B28008BB2D31A9BB21AB22A4B5A802C4B9B8871
:102B380019B2284BB3F904309AB28BB2D31A9BB2AC
:102B48001AB2244B9A80234BB3F90030322219462B
:102B58003048FFF7BBFD03461A462F4B1A801D4B22
:102B6800B3F90230322219462C48FFF7AFFD03466D
:102B78001A46294B5A80174BB3F9043032221946AA
:102B88002748FFF7A3FD03461A46234B9A80204B9C
:102B980000221A701B4BB3F90030002B42D1194B9D
:102BA800B3F90230002B3DD1164BB3F90430002B9A
:102BB80038D14FF000037B614FF000033B614FF0C9
:102BC8007E53FB605EE000BF34060020000A002050
:102BD8005C050020900A0020580A002010080020F8
:102BE800680A00201A02002010070020F8080020B8
:102BF8004804002018080020380B00201902002083
:102C080080090020E8060020DC040020900700204E
:102C180018020020B4050020600A002000090020E6
:102C2800980A00203C4BB3F9003007EE903AF8EED2
:102C3800E77A9FED3A7A67EE877AC7ED057A364BE1
:102C4800B3F9023007EE903AF8EEE77A9FED337A5F
:102C580067EE877AC7ED047A2F4BB3F9043007EE95
:102C6800903AF8EEE77A9FED2D7A67EE877AC7ED0E
:102C7800037A07F10C0207F1100107F11403184653
:102C8800FFF7CCFC264BB3F9003007EE903AF8EE8C
:102C9800E77A9FED247A67EE877A9FED237A67EECD
:102CA800877AC7ED087A1E4BB3F9023007EE903ADF
:102CB800F8EEE77A9FED1D7A67EE877A9FED1A7A2C
:102CC80067EE877AC7ED077A154BB3F9043007EE3C
:102CD800903AF8EEE77A9FED137A67EE877A9FEDE0
:102CE800127A67EE877AC7ED067A114BB3F900308E
:102CF800002B23D10E4BB3F90230002B1ED10C4B05
:102D0800B3F90430002B19D10A4BBB60094B7B6027
:102D1800094B3B6039E000BFE8060020FFFF1F3A7F
:102D2800600A0020295C8F3C35FA8E3C295C8FBCF8
:102D3800F8080020CDCC4C3ECDCCCC3DCA4BB3F9E5
:102D4800003007EE903AF8EEE77A9FEDC87A67EE22
:102D5800877AC7ED027AC44BB3F9023007EE903A8E
:102D6800F8EEE77A9FEDC27A67EE877AC7ED017AC7
:102D7800BD4BB3F9043007EE903AF8EEE77A9FEDD1
:102D8800BB7A67EE877AC7ED007A3A46391D07F1B4
:102D980008031846FFF742FCD7ED057A97ED047A49
:102DA800D7ED036A97ED026AD7ED015A97ED005AFD
:102DB800B0EE454AF0EE653AB0EE463AF0EE662AD5
:102DC800B0EE472AF0EE671A97ED061AD7ED070A14
:102DD80097ED080AFEF734F8A64B93ED007AA64B58
:102DE800D3ED007A27EE277AA44BD3ED006AA44BE3
:102DF800D3ED007A66EEA77A77EE277A77EEA77A90
:102E080017EE900AFDF748FB04460D469C4B93EDE0
:102E1800007A9B4BD3ED007A27EE277A964BD3EDB9
:102E2800006A954BD3ED007A66EEA77A77EE277A9B
:102E380077EEA77AB7EE007A77EE677A17EE900A00
:102E4800FDF72AFB02460B4643EC112B45EC104BD1
:102E580008F0CCFC51EC100B7FA3D3E90023FDF75D
:102E680073FB02460B4610461946FDF71DFE034646
:102E7800844AD3607F4B93ED007A804BD3ED007A80
:102E880027EE277A7E4BD3ED006A7B4BD3ED007A91
:102E980066EEA77A77EE277A77EEA77A17EE900A8A
:102EA800FDF7FAFA04460D46744B93ED007A734B1E
:102EB800D3ED007A27EE277A714BD3ED006A704B79
:102EC800D3ED007A66EEA77A77EE277A77EEA77ABF
:102ED800B7EE007A77EE677A17EE900AFDF7DCFA1C
:102EE80002460B4643EC112B45EC104B08F07EFCD8
:102EF80051EC100B58A3D3E90023FDF725FB02463C
:102F08000B4610461946FDF7CFFD03465D4A936010
:102F1800584B93ED007A5A4BD3ED007A27EE277A77
:102F2800554BD3ED006A554BD3ED007A66EEA77A80
:102F380077EE677A77EEA77A17EE900AFDF7ACFA84
:102F480002460B4643EC102B08F016FC51EC100B14
:102F580041A3D3E90023FDF7F7FA02460B461046D2
:102F68001946FDF7A1FD0346464A5360414B1B68CD
:102F7800444A1361414B1B68424A5361404B1B68EA
:102F8800404A93613C4B1B683E4AD3613E4B93EDEC
:102F9800007AD7ED057A77EE677A17EE900AFDF793
:102FA8007BFA2FA3D3E90023FDF75EFD0346002B30
:102FB80012D1364B93ED007AD7ED047A77EE677A23
:102FC80017EE900AFDF768FA25A3D3E90023FDF769
:102FD8004BFD0346002B1DD02B4B93ED007AD7ED0C
:102FE800057A37EE677A274BD3ED087A77EE277A9A
:102FF800244BC3ED087A254B93ED007AD7ED047A7C
:1030080037EE677A1F4BD3ED097A77EE277A1D4B97
:10301800C3ED097A7B691C4A13603B691B4A13603C
:10302800BB68184A93627B68164AD3623B68154AA4
:10303800136304237B620AE07B6A124A1A447B6AA0
:10304800043B1178124AD1547B6A01337B627B6A54
:103058001D2BF1DDD1E400BF00000000DCA54C40D1
:103068002D431CEBE2361A3FF8080020A69BC43A11
:10307800A69BC4BA04000020140200200C02002001
:1030880010020020380B00201C0200202002002023
:10309800180B002080B594B000AF07F12003302250
:1030A8000021184608F060FB07F10C0300221A60A3
:1030B8005A609A60DA601A610023BB60274B1B6C68
:1030C800264A43F080531364244B1B6C03F080534F
:1030D800BB60BB6800237B60214B1B68204A43F41C
:1030E800404313601E4B1B6803F440437B607B68BE
:1030F80001233B624FF480337B620223BB634FF4AE
:103108008003FB6304233B64A8237B640423BB6420
:103118000723FB6407F12003184603F0CBFB0346A3
:10312800002B01D000F02AFA0F23FB6002233B6139
:1031380000237B614FF48053BB610023FB6107F1DF
:103148000C030221184603F02DFE0346002B01D084
:1031580000F014FA00BF5037BD4680BD0038024069
:103168000070004080B500AF124B134A1A60114B33
:10317800124A5A600F4B00229A600E4B0022DA6006
:103188000C4B4FF480421A610A4B00225A61094BDA
:1031980000229A61074B0022DA61064B00221A626C
:1031A800044801F045FA0346002B01D000F0E6F987
:1031B80000BF80BD3406002000540040801A06007D
:1031C80080B500AF174B184A1A60164B4FF482723D
:1031D8005A60144B00229A60124B0022DA60114B9D
:1031E80000221A610F4B01225A610E4B4FF40072F4
:1031F8009A610C4B1822DA610A4B00221A62094BB9
:1032080000225A62074B00229A62064B0A22DA62AF
:10321800044803F0AFFF0346002B01D000F0AEF9DD
:1032280000BF80BD000A00200030014080B500AF1B
:10323800154B164A1A60144B00225A60124B002292
:103248009A60114B0022DA600F4B00221A610E4B74
:1032580000225A610C4B4FF400729A610A4B00220B
:103268001A62094B00225A62074B00229A62064BE7
:103278000A22DA62044803F07DFF0346002B01D0DE
:1032880000F07CF900BF80BD5C05002000500140C3
:1032980080B582B000AF00237B60104B1B6B0F4AD8
:1032A80043F4800313630D4B1B6B03F480037B60B3
:1032B8007B68002200213B2000F0E3FC3B2000F06B
:1032C800FCFC002200213C2000F0DBFC3C2000F04C
:1032D800F4FC00BF0837BD4680BD00BF003802407F
:1032E80080B58CB000AF07F11C0300221A605A6049
:1032F8009A60DA601A610023BB619A4B1B6B994A8A
:1033080043F010031363974B1B6B03F01003BB616F
:10331800BB6900237B61934B1B6B924A43F0040308
:103328001363904B1B6B03F004037B617B690023E1
:103338003B618C4B1B6B8B4A43F080031363894BB7
:103348001B6B03F080033B613B690023FB60854BEB
:103358001B6B844A43F001031363824B1B6B03F01E
:103368000103FB60FB680023BB607E4B1B6B7D4A3F
:1033780043F0020313637B4B1B6B03F00203BB6038
:10338800BB6800237B60774B1B6B764A43F00803CE
:103398001363744B1B6B03F008037B607B6800228C
:1033A80047F68871704801F011F9012201216F4830
:1033B80001F00CF9002204216D4801F007F9002200
:1033C8004FF210016B4801F001F91623FB614FF42D
:1033D80088133B6200237B6207F11C03194662488D
:1033E80000F070FF0823FB6101233B6200237B622E
:1033F8000223BB6207F11C0319465B4800F062FF19
:103408000123FB6101233B6200237B620023BB6233
:1034180007F11C031946554800F054FF0823FB61C7
:1034280002233B6200237B620023BB620523FB620D
:1034380007F11C0319464D4800F044FF0123FB61C6
:1034480000233B6200237B6207F11C0319464A48AC
:1034580000F038FF1023FB6102233B6200237B62EC
:103468000023BB620623FB6207F11C03194642488E
:1034780000F028FF0423FB6101233B6200237B62E9
:103488000023BB6207F11C031946394800F01AFFF4
:103498004FF4FF43FB6101233B6200237B6200235F
:1034A800BB6207F11C0319462F4800F00BFF4FF4CD
:1034B800A053FB6102233B6200237B620023BB62B3
:1034C8000523FB6207F11C031946294800F0FAFEA0
:1034D8004FF21003FB6101233B6200237B62002350
:1034E800BB6207F11C031946224800F0EBFE4FF4BB
:1034F800A453FB6102233B6200237B620023BB626F
:103508000623FB6207F11C031946184800F0DAFE8F
:103518004FF40063FB6100233B6200237B6207F1E9
:103528001C031946114800F0CDFE00220021072097
:1035380000F0A7FB072000F0C0FB002200210820B4
:1035480000F09FFB082000F0B8FB002200210A20B1
:1035580000F097FB0A2000F0B0FB00BF3037BD46F3
:1035680080BD00BF00380240001002400008024041
:1035780000040240000C02400000024080B400AF8A
:1035880072B600BFFEE7000080B582B000AF00232E
:103598007B60104B5B6C0F4A43F4804353640D4BC4
:1035A8005B6C03F480437B607B6800233B60094BC2
:1035B8001B6C084A43F080531364064B1B6C03F0E2
:1035C80080533B603B68072000F050FB00BF083782
:1035D800BD4680BD0038024080B58AB000AF786033
:1035E80007F1140300221A605A609A60DA601A61BF
:1035F8007B681B68194A93422CD100233B61184B06
:103608001B6B174A43F002031363154B1B6B03F044
:1036180002033B613B694FF410737B611223BB616A
:103628000123FB6100233B6204237B6207F114033F
:1036380019460C4800F046FE0023FB60084B1B6C43
:10364800074A43F400131364054B1B6C03F400137F
:10365800FB60FB6800BF2837BD4680BD00540040B2
:10366800003802400004024080B58CB000AF78609A
:1036780007F11C0300221A605A609A60DA601A6126
:103688007B681B686F4A93422CD10023BB616E4B49
:103698005B6C6D4A43F4805353646B4B5B6C03F46F
:1036A8008053BB61BB6900237B61674B1B6B664A18
:1036B80043F001031363644B1B6B03F001037B614D
:1036C8007B69E023FB6102233B6200237B620323C7
:1036D800BB620523FB6207F11C0319465B4800F037
:1036E800F1FDABE07B681B68594A934240F0A68025
:1036F80000233B61544B5B6C534A43F4801353647F
:10370800514B5B6C03F480133B613B690023FB6006
:103718004D4B1B6B4C4A43F0100313634A4B1B6B16
:1037280003F01003FB60FB680023BB60464B1B6B78
:10373800454A43F002031363434B1B6B03F0020338
:10374800BB60BB686023FB6102233B6200237B6292
:103758000323BB620623FB6207F11C0319463D489D
:1037680000F0B0FD0123FB6102233B6200237B6272
:103778000323BB620623FB6207F11C031946364884
:1037880000F0A0FD354B364A1A60344B4FF080628A
:103798005A60324B00229A60304B0022DA602F4B7D
:1037A8004FF480621A612D4B00225A612B4B002284
:1037B8009A612A4B0022DA61284B00221A62274BB1
:1037C80000225A62254800F093FA0346002B01D0E4
:1037D800FFF7D4FE7B68214ADA64204A7B6893634A
:1037E800204B214A1A601F4B4FF080625A601D4BD4
:1037F80040229A601B4B0022DA601A4B4FF4806219
:103808001A61184B00225A61164B00229A61154B17
:103818000022DA61134B00221A62124B00225A620C
:10382800104800F065FA0346002B01D0FFF7A6FE0A
:103838007B680C4A9A640B4A7B68936300BF3037F5
:10384800BD4680BD00300140003802400000024003
:103858000050014000100240000402408806002089
:1038680058640240980800207064024080B400AF99
:10387800FEE780B400AFFEE780B400AFFEE780B497
:1038880000AFFEE780B400AFFEE780B400AF00BF32
:10389800BD465DF8047B704780B400AF00BFBD46ED
:1038A8005DF8047B704780B400AF00BFBD465DF88B
:1038B800047B704780B500AF00F0C4F800BF80BD3E
:1038C80080B500AF022000F09BFE00BF80BD80B530
:1038D80000AF042000F094FE00BF80BD80B500AFAB
:1038E800102000F08DFE00BF80BD000080B500AF45
:1038F800024800F0ABFA00BF80BD00BF8806002078
:1039080080B500AF024800F0A1FA00BF80BD00BF3B
:103918009808002080B500AF024801F098FF00BF6A
:1039280080BD00BF4020002080B400AF064BD3F814
:103938008830054A43F47003C2F8883000BFBD469A
:103948005DF8047B704700BF00ED00E0DFF834D07D
:103958000D480E490E4A002302E0D458C4500433DF
:10396800C4188C42F9D30B4A0B4C002301E01360B6
:103978000432A242FBD3FFF7D7FF07F0D1FEFEF7D0
:10398800CBFF70470000022000000020F00100205B
:10399800E8C30008F001002048240020FEE70000EA
:1039A80080B500AF0E4B1B680D4A43F400731360DB
:1039B8000B4B1B680A4A43F480631360084B1B686F
:1039C800074A43F480731360032000F04FF9002086
:1039D80000F008F8FFF7D8FD0023184680BD00BFA7
:1039E800003C024080B582B000AF7860124B1A6884
:1039F800124B1B7819464FF47A73B3FBF1F3B2FB01
:103A0800F3F3184600F067F90346002B01D00123B1
:103A18000EE07B680F2B0AD8002279684FF0FF3040
:103A280000F02FF9064A7B681360002300E00123A9
:103A380018460837BD4680BD080000201000002049
:103A48000C00002080B400AF064B1B781A46064BCA
:103A58001B681344044A136000BFBD465DF8047B2D
:103A6800704700BF100000206C0B002080B400AF2E
:103A7800034B1B681846BD465DF8047B704700BFC2
:103A88006C0B002080B584B000AF7860FFF7EEFFC4
:103A9800B8607B68FB60FB68B3F1FF3F05D00A4B59
:103AA8001B781A46FB681344FB6000BFFFF7DEFF74
:103AB8000246BB68D31AFA689A42F7D800BF00BF1B
:103AC8001037BD4680BD00BF1000002080B485B00F
:103AD80000AF78607B6803F00703FB600C4BDB6882
:103AE800BB60BA684FF6FF031340BB60FB681A025D
:103AF800BB68134343F0BF6343F40033BB60044A1D
:103B0800BB68D36000BF1437BD465DF8047B7047BF
:103B180000ED00E080B400AF044BDB681B0A03F043
:103B280007031846BD465DF8047B704700ED00E0CA
:103B380080B483B000AF0346FB7197F90730002BC0
:103B48000BDBFB7903F01F02074997F907305B0984
:103B5800012000FA02F241F8232000BF0C37BD46CD
:103B68005DF8047B704700BF00E100E080B483B0DB
:103B780000AF03463960FB7197F90730002B0ADB69
:103B88003B68DAB20C4997F907301201D2B20B44FC
:103B980083F800230AE03B68DAB20849FB7903F0AE
:103BA8000F03043B1201D2B20B441A7600BF0C3744
:103BB800BD465DF8047B704700E100E000ED00E0E1
:103BC80080B489B000AFF860B9607A60FB6803F030
:103BD8000703FB61FB69C3F10703042B28BF042318
:103BE800BB61FB690433062B02D9FB69033B00E088
:103BF80000237B614FF0FF32BB6902FA03F3DA431B
:103C0800BB681A407B699A404FF0FF317B6901FA23
:103C180003F3D9437B680B40134318462437BD464A
:103C28005DF8047B7047000080B582B000AF786013
:103C38007B68013BB3F1807F01D301230FE00A4A7F
:103C48007B68013B53600F214FF0FF30FFF78EFF79
:103C5800054B00229A60044B07221A60002318467D
:103C68000837BD4680BD00BF10E000E080B582B0D7
:103C780000AF78607868FFF729FF00BF0837BD46B6
:103C880080BD80B586B000AF0346B9607A60FB732B
:103C980000237B61FFF73EFF78617A68B96878692D
:103CA800FFF78EFF024697F90F3011461846FFF7C7
:103CB8005DFF00BF1837BD4680BD80B582B000AF3C
:103CC8000346FB7197F907301846FFF731FF00BF2D
:103CD8000837BD4680BD80B582B000AF786078688F
:103CE800FFF7A2FF034618460837BD4680BD00000F
:103CF80080B586B000AF786000237B61FFF7B6FE21
:103D080038617B68002B01D1012399E07B6802228E
:103D180083F835207B68002283F834207B681B6891
:103D28001A687B681B6822F001021A600FE0FFF72F
:103D38009DFE02463B69D31A052B08D97B682022D1
:103D48005A657B68032283F83520032378E07B6873
:103D58001B681B6803F00103002BE8D17B681B6814
:103D68001B687B617A69384B13407B617B685A68B2
:103D78007B689B681A437B68DB681A437B681B690E
:103D88001A437B685B691A437B689B691A437B68A3
:103D9800DB691A437B681B6A13437A6913437B61A7
:103DA8007B685B6A042B07D17B68DA6A7B681B6BCC
:103DB80013437A6913437B617B681B687A691A60CD
:103DC8007B681B685B697B617B6923F007037B6108
:103DD8007B685B6A7A6913437B617B685B6A042B47
:103DE80017D17B689B6A7A6913437B617B68DB6ABE
:103DF800002B0ED0786800F0E9F90346002B08D0B4
:103E08007B6840225A657B68012283F835200123AC
:103E180016E07B681B687A695A61786800F0A0F937
:103E28000346FB607B68DB6D3F229A40FB689A6023
:103E38007B6800225A657B68012283F835200023BD
:103E480018461837BD4680BD3F8010F080B586B053
:103E580000AF78600023BB60924B1B68924AA2FBBC
:103E680003239B0A7B617B689B6D3B613B691B68F5
:103E7800FB607B68DB6D08229A40FB681340002BCF
:103E88001AD07B681B681B6803F00403002B13D04F
:103E98007B681B681A687B681B6822F004021A603A
:103EA8007B68DB6D08229A403B699A607B685B6D92
:103EB80043F001027B685A657B68DB6D01229A40FA
:103EC800FB681340002B12D07B681B685B6903F00A
:103ED8008003002B0BD07B68DB6D01229A403B6985
:103EE8009A607B685B6D43F002027B685A657B6869
:103EF800DB6D04229A40FB681340002B12D07B68CC
:103F08001B681B6803F00203002B0BD07B68DB6D7A
:103F180004229A403B699A607B685B6D43F0040217
:103F28007B685A657B68DB6D10229A40FB681340FA
:103F3800002B43D07B681B681B6803F00803002B29
:103F48003CD07B68DB6D10229A403B699A607B68A5
:103F58001B681B6803F48023002B18D07B681B6840
:103F68001B6803F40023002B08D17B681B6C002B13
:103F780024D07B681B6C786898471FE07B689B6C33
:103F8800002B1BD07B689B6C7868984716E07B6891
:103F98001B681B6803F48073002B07D17B681B68C0
:103FA8001A687B681B6822F008021A607B681B6C21
:103FB800002B03D07B681B6C786898477B68DB6DA7
:103FC80020229A40FB681340002B00F08E807B680B
:103FD8001B681B6803F01003002B00F086807B68C9
:103FE800DB6D20229A403B699A607B6893F83530F4
:103FF800DBB2052B36D17B681B681A687B681B68A7
:1040080022F016021A607B681B685A697B681B6875
:1040180022F080025A617B681B6C002B03D17B68FD
:104028009B6C002B07D07B681B681A687B681B6831
:1040380022F008021A607B68DB6D3F229A403B69D8
:104048009A607B68012283F835207B68002283F818
:1040580034207B681B6D002B7DD07B681B6D7868D6
:10406800984778E07B681B681B6803F48023002B63
:104078001CD07B681B681B6803F40023002B08D145
:104088007B685B6C002B30D07B685B6C78689847EA
:104098002BE07B68DB6B002B27D07B68DB6B7868B9
:1040A800984722E008000020B5814E1B7B681B68FA
:1040B8001B6803F48073002B0FD17B681B681A6898
:1040C8007B681B6822F010021A607B68012283F863
:1040D80035207B68002283F834207B68DB6B002B5B
:1040E80003D07B68DB6B786898477B685B6D002B37
:1040F80032D07B685B6D03F00103002B22D07B6814
:10410800052283F835207B681B681A687B681B6862
:1041180022F001021A60BB680133BB607A699A42D7
:1041280007D37B681B681B6803F00103002BF2D1DF
:1041380000E000BF7B68012283F835207B680022FD
:1041480083F834207B68DB6C002B05D07B68DB6C44
:104158007868984700E000BF1837BD4680BD00BFAB
:1041680080B485B000AF78607B681B68DBB2103B19
:10417800144AA2FB03231B09FB60134AFB68134480
:104188001B781A467B68DA65FB68032B09D97B68BC
:104198001B6823F47F7323F003031A1D7B689A6559
:1041A80007E07B681B6823F47F7323F003037A68B6
:1041B80093657B689B6D18461437BD465DF8047B94
:1041C800704700BFABAAAAAA58C3000880B485B03C
:1041D80000AF78600023FB737B689B6ABB607B68D9
:1041E8009B69002B1FD1BB68032B56D801A252F83C
:1041F80023F000BF0D4200081F4200080D420008CE
:10420800A34200087B68DB6A03F08073002B46D06A
:104218000123FB7343E07B68DB6AB3F1C07F40D1C5
:104228000123FB733DE07B689B69B3F5005F21D1F7
:10423800BB68032B37D801A252F823F05542000877
:104248005B420008554200086D4200080123FB73D9
:1042580030E07B68DB6A03F08073002B25D00123F4
:10426800FB7322E07B68DB6AB3F1C07F1FD10123B7
:10427800FB731CE0BB68022B03D9BB68032B03D07C
:1042880018E00123FB7315E07B68DB6A03F0807399
:10429800002B0ED00123FB730BE000BF0AE000BF28
:1042A80008E000BF06E000BF04E000BF02E000BF76
:1042B80000E000BFFB7B18461437BD465DF8047B61
:1042C800704700BF80B489B000AF786039600023C0
:1042D8007B6100233B610023BB610023FB6159E143
:1042E8000122FB6902FA03F37B613B681B687A6968
:1042F80013403B613A697B699A4240F048813B68C8
:104308005B6803F00303012B05D03B685B6803F08F
:104318000303022B30D17B689B68BB61FB695B00A0
:10432800032202FA03F3DB43BA691340BB613B681B
:10433800DA68FB695B0002FA03F3BA691343BB61ED
:104348007B68BA699A607B685B68BB610122FB691C
:1043580002FA03F3DB43BA691340BB613B685B684D
:104368001B0903F00102FB6902FA03F3BA6913435C
:10437800BB617B68BA695A603B685B6803F00303FA
:10438800032B17D07B68DB68BB61FB695B000322EA
:1043980002FA03F3DB43BA691340BB613B689A68CE
:1043A800FB695B0002FA03F3BA691343BB617B68DC
:1043B800BA69DA603B685B6803F00303022B23D118
:1043C800FB69DA087B68083253F82230BB61FB6965
:1043D80003F007039B000F2202FA03F3DB43BA69D9
:1043E8001340BB613B681A69FB6903F007039B0034
:1043F80002FA03F3BA691343BB61FB69DA087B6805
:104408000832B96943F822107B681B68BB61FB69F5
:104418005B00032202FA03F3DB43BA691340BB6172
:104428003B685B6803F00302FB695B0002FA03F375
:10443800BA691343BB617B68BA691A603B685B68F9
:1044480003F44033002B00F0A2800023FB60574B9D
:104458005B6C564A43F480435364544B5B6C03F4DF
:104468008043FB60FB68524AFB699B08023352F8A1
:104478002330BB61FB6903F003039B000F2202FAA0
:1044880003F3DB43BA691340BB617B68494A934233
:1044980019D07B68484A934213D07B68474A9342B5
:1044A8000DD07B68464A934207D07B68454A9342C1
:1044B80001D1042308E0072306E0032304E00223D4
:1044C80002E0012300E00023FA6902F003029200EF
:1044D8009340BA691343BB613549FB699B080233B2
:1044E800BA6941F82320384B1B68BB613B69DB4341
:1044F800BA691340BB613B685B6803F48033002BE7
:1045080003D0BA693B691343BB612F4ABB69136087
:104518002D4B5B68BB613B69DB43BA691340BB61E8
:104528003B685B6803F40033002B03D0BA693B692E
:104538001343BB61244ABB695360234B9B68BB612F
:104548003B69DB43BA691340BB613B685B6803F4B2
:104558008013002B03D0BA693B691343BB611A4A25
:10456800BB699360184BDB68BB613B69DB43BA6985
:104578001340BB613B685B6803F40013002B03D056
:10458800BA693B691343BB610F4ABB69D360FB69D6
:104598000133FB61FB690F2B7FF6A2AE00BF00BFA2
:1045A8002437BD465DF8047B704700BF00380240E1
:1045B80000380140000002400004024000080240A8
:1045C800000C024000100240003C014080B483B05F
:1045D80000AF78600B467B8013467B707B78002B9E
:1045E80003D07A887B689A6103E07B881A047B6829
:1045F8009A6100BF0C37BD465DF8047B7047000028
:1046080080B582B000AF0346FB80084B5A69FB882F
:104618001340002B06D0054AFB885361FB881846D7
:10462800FEF73EF900BF0837BD4680BD003C01409B
:1046380080B584B000AF78607B68002B01D101237E
:104648002BE17B6893F83D30DBB2002B06D17B6809
:10465800002283F83C207868FEF7BEFF7B6824229E
:1046680083F83D207B681B681A687B681B6822F00A
:1046780001021A607B681B681A687B681B6842F431
:1046880000421A607B681B681A687B681B6822F402
:1046980000421A6002F05AFDF8607B685B68814A44
:1046A800934207D8FB68804A934294BF01230023B2
:1046B800DBB206E0FB687D4A934294BF01230023E6
:1046C800DBB2002B01D00123E7E0FB68784AA2FBAC
:1046D80003239B0CBB607B681B685B6823F03F016E
:1046E8007B681B68BA680A435A607B681B681B6A48
:1046F80023F03F017B685B686A4A934202D8BB6833
:10470800013309E0BB684FF4967202FB03F3694A70
:10471800A2FB03239B0901337A6812680B431362D7
:104728007B681B68DB6923F44F4222F0FF027B6839
:104738005B685C498B4219D8FB68591E7B685B68CB
:104748005B00B1FBF3F3591C40F6FC730B40002BE4
:104758000AD0FB68591E7B685B685B00B1FBF3F30A
:104768000133C3F30B0351E004234FE07B689B68DC
:10477800002B11D1FB68581E7B6859680B465B00FB
:104788000B44B0FBF3F30133C3F30B03002B0CBF53
:1047980001230023DBB212E0FB68581E7B685968CE
:1047A8000B469B000B4499000B44B0FBF3F3013319
:1047B800C3F30B03002B0CBF01230023DBB2002B38
:1047C80001D0012322E07B689B68002B0ED1FB6897
:1047D800581E7B6859680B465B000B44B0FBF3F32B
:1047E8000133C3F30B0343F400430FE0FB68581E87
:1047F8007B6859680B469B000B4499000B44B0FB3F
:10480800F3F30133C3F30B0343F4404379680968B6
:104818001343CB617B681B681B6823F0C0017B686E
:10482800DA697B681B6A1A437B681B680A431A604B
:104838007B681B689B6823F4034323F0FF037A68B3
:1048480011697A68D26811437A6812680B439360D9
:104858007B681B68DB6823F0FF017B685A697B680B
:104868009B691A437B681B680A43DA607B681B688C
:104878001A687B681B6842F001021A607B68002294
:104888001A647B68202283F83D207B6800221A6323
:104898007B68002283F83E20002318461037BD4667
:1048A80080BD00BFA08601007F841E00FF083D0078
:1048B80083DE1B43D34D621080B588B002AFF86029
:1048C800084611461A4603467B810B463B81134630
:1048D800FB80FFF7CBF87861FB6893F83D30DBB2DB
:1048E800202B40F0D9807B690093192301226D4960
:1048F800F86800F07FFC0346002B01D00223CCE0CF
:10490800FB6893F83C30012B01D10223C5E0FB681A
:10491800012283F83C20FB681B681B6803F0010335
:10492800012B07D0FB681B681A68FB681B6842F0FC
:1049380001021A60FB681B681A68FB681B6822F48E
:1049480000621A60FB68212283F83D20FB68402240
:1049580083F83E20FB6800221A64FB683A6A5A62B0
:10496800FB68BA8C5A85FB685B8D9AB2FB681A851E
:10497800FB684D4ADA62F8883A8979897B6901933C
:10498800BB6A00930346F86800F0B6FA0346002BAA
:1049980052D0012381E07A69B96AF86800F000FD15
:1049A8000346002B0DD0FB681B6C042B07D1FB685A
:1049B8001B681A68FB681B6842F400721A600123BE
:1049C8006BE0FB685B6A1A78FB681B681A61FB6816
:1049D8005B6A5A1CFB685A62FB681B8D013B9AB2E2
:1049E800FB681A85FB685B8D9BB2013B9AB2FB683A
:1049F8005A85FB681B685B6903F00403042B1BD111
:104A0800FB681B8D002B17D0FB685B6A1A78FB6864
:104A18001B681A61FB685B6A5A1CFB685A62FB6870
:104A28001B8D013B9AB2FB681A85FB685B8D9BB2B4
:104A3800013B9AB2FB685A85FB681B8D002BAAD1F3
:104A48007A69B96AF86800F0ECFC0346002B0DD0CF
:104A5800FB681B6C042B07D1FB681B681A68FB6892
:104A68001B6842F400721A60012316E0FB681B6899
:104A78001A68FB681B6842F400721A60FB682022FF
:104A880083F83D20FB68002283F83E20FB68002263
:104A980083F83C20002300E0022318461837BD465F
:104AA80080BD00BF020010000000FFFF80B58CB081
:104AB80002AFF860084611461A4603467B810B464A
:104AC8003B811346FB80FEF7D1FF7862FB6893F8C1
:104AD8003D30DBB2202B40F008827B6A009319231B
:104AE80001227B49F86800F085FB0346002B01D0C2
:104AF8000223FBE1FB6893F83C30012B01D1022330
:104B0800F4E1FB68012283F83C20FB681B681B6802
:104B180003F00103012B07D0FB681B681A68FB68C8
:104B28001B6842F001021A60FB681B681A68FB6880
:104B38001B6822F400621A60FB68222283F83D2079
:104B4800FB68402283F83E20FB6800221A64FB6859
:104B58003A6B5A62FB68BA8E5A85FB685B8D9AB2CB
:104B6800FB681A85FB685B4ADA62F8883A897989B2
:104B78007B6A0193BB6B00930346F86800F052FA16
:104B88000346002B01D00123B0E1FB681B8D002BED
:104B980013D100233B62FB681B685B693B62FB68BF
:104BA8001B689B693B623B6AFB681B681A68FB6869
:104BB8001B6842F400721A6084E1FB681B8D012BAC
:104BC8001BD1FB681B681A68FB681B6822F48062AB
:104BD8001A600023FB61FB681B685B69FB61FB686B
:104BE8001B689B69FB61FB69FB681B681A68FB68AB
:104BF8001B6842F400721A6064E1FB681B8D022B8B
:104C08001BD1FB681B681A68FB681B6822F480626A
:104C18001A60FB681B681A68FB681B6842F400622C
:104C28001A600023BB61FB681B685B69BB61FB689A
:104C38001B689B69BB61BB6944E100237B61FB681E
:104C48001B685B697B61FB681B689B697B617B698F
:104C580038E1FB681B8D032B00F2F180FB681B8D8C
:104C6800012B23D17A6AB96BF86800F01BFC034664
:104C7800002B01D0012339E1FB681B681A69FB6826
:104C88005B6AD2B21A70FB685B6A5A1CFB685A628C
:104C9800FB681B8D013B9AB2FB681A85FB685B8D2C
:104CA8009BB2013B9AB2FB685A850BE1FB681B8DEE
:104CB800022B4ED17B6A0093BB6B00220649F86831
:104CC80000F098FA0346002B08D001230EE100BF3C
:104CD800020010000000FFFF04000100FB681B68D1
:104CE8001A68FB681B6842F400721A60FB681B684C
:104CF8001A69FB685B6AD2B21A70FB685B6A5A1C55
:104D0800FB685A62FB681B8D013B9AB2FB681A85E7
:104D1800FB685B8D9BB2013B9AB2FB685A85FB68C6
:104D28001B681A69FB685B6AD2B21A70FB685B6A17
:104D38005A1CFB685A62FB681B8D013B9AB2FB68E0
:104D48001A85FB685B8D9BB2013B9AB2FB685A855A
:104D5800B8E07B6A0093BB6B00226649F86800F0F4
:104D680049FA0346002B01D00123BFE0FB681B680A
:104D78001A68FB681B6822F480621A60FB681B686B
:104D88001A69FB685B6AD2B21A70FB685B6A5A1CC4
:104D9800FB685A62FB681B8D013B9AB2FB681A8557
:104DA800FB685B8D9BB2013B9AB2FB685A857B6AB4
:104DB8000093BB6B00224F49F86800F01BFA0346CA
:104DC800002B01D0012391E0FB681B681A68FB687F
:104DD8001B6842F400721A60FB681B681A69FB685A
:104DE8005B6AD2B21A70FB685B6A5A1CFB685A622B
:104DF800FB681B8D013B9AB2FB681A85FB685B8DCB
:104E08009BB2013B9AB2FB685A85FB681B681A691A
:104E1800FB685B6AD2B21A70FB685B6A5A1CFB6853
:104E28005A62FB681B8D013B9AB2FB681A85FB68C6
:104E38005B8D9BB2013B9AB2FB685A8542E07A6A65
:104E4800B96BF86800F02EFB0346002B01D0012354
:104E58004CE0FB681B681A69FB685B6AD2B21A707F
:104E6800FB685B6A5A1CFB685A62FB681B8D013B36
:104E78009AB2FB681A85FB685B8D9BB2013B9AB2BC
:104E8800FB685A85FB681B685B6903F00403042B05
:104E980018D1FB681B681A69FB685B6AD2B21A7082
:104EA800FB685B6A5A1CFB685A62FB681B8D013BF6
:104EB8009AB2FB681A85FB685B8D9BB2013B9AB27C
:104EC800FB685A85FB681B8D002B7FF4C2AEFB681C
:104ED800202283F83D20FB68002283F83E20FB68EF
:104EE800002283F83C20002300E0022318462837DC
:104EF800BD4680BD0400010080B588B002AFF860EF
:104F0800084611461A4603467B810B463B811346E9
:104F1800FB80FB681B681A68FB681B6842F4807298
:104F28001A607B6A00933B6A00224FF00111F8680F
:104F380000F060F90346002B0DD0FB681B681B6866
:104F480003F48073B3F5807F03D1FB684FF40072DC
:104F58001A6403235FE07B89DBB21A46FB681B688F
:104F680002F0FE021A617B6A3A6A2D49F86800F07D
:104F780098F90346002B01D001234CE000237B6104
:104F8800FB681B685B697B61FB681B689B697B61CD
:104F98007B697A6A396AF86800F002FA0346002BDE
:104FA8000DD0FB681B6C042B07D1FB681B681A68C3
:104FB800FB681B6842F400721A6001232BE0FB882F
:104FC800012B05D13B89DAB2FB681B681A6121E025
:104FD8003B891B0A9BB2DAB2FB681B681A617A6AC2
:104FE800396AF86800F0DCF90346002B0DD0FB683D
:104FF8001B6C042B07D1FB681B681A68FB681B68CD
:1050080042F400721A60012305E03B89DAB2FB68BA
:105018001B681A61002318461837BD4680BD00BFBB
:105028000200010080B588B002AFF860084611465A
:105038001A4603467B810B463B811346FB80FB687F
:105048001B681A68FB681B6842F480621A60FB6878
:105058001B681A68FB681B6842F480721A607B6AD6
:1050680000933B6A00224FF00111F86800F0C2F883
:105078000346002B0DD0FB681B681B6803F4807384
:10508800B3F5807F03D1FB684FF400721A640323E1
:10509800AAE07B89DBB21A46FB681B6802F0FE02B5
:1050A8001A617B6A3A6A5249F86800F0FAF80346CE
:1050B800002B01D0012397E000237B61FB681B686C
:1050C8005B697B61FB681B689B697B617B697A6AAA
:1050D800396AF86800F064F90346002B0DD0FB68C4
:1050E8001B6C042B07D1FB681B681A68FB681B68DC
:1050F80042F400721A60012376E0FB88012B05D187
:105108003B89DAB2FB681B681A6121E03B891B0AFC
:105118009BB2DAB2FB681B681A617A6A396AF86866
:1051280000F03EF90346002B0DD0FB681B6C042BE6
:1051380007D1FB681B681A68FB681B6842F4007299
:105148001A60012350E03B89DAB2FB681B681A61D8
:105158007A6A396AF86800F023F90346002B0DD003
:10516800FB681B6C042B07D1FB681B681A68FB687B
:105178001B6842F400721A60012335E0FB681B6863
:105188001A68FB681B6842F480721A607B6A009395
:105198003B6A00224FF00111F86800F02BF8034633
:1051A800002B0DD0FB681B681B6803F48073B3F5F4
:1051B800807F03D1FB684FF400721A64032313E065
:1051C8007B89DBB243F00103DAB2FB681B681A6122
:1051D8007B6A3A6A0649F86800F063F80346002BD0
:1051E80001D0012300E0002318461837BD4680BDD2
:1051F8000200010080B584B000AFF860B9603B6080
:105208001346FB7125E03B68B3F1FF3F21D0FEF761
:105218002DFC0246BB69D31A3A689A4202D33B680E
:10522800002B16D1FB6800221A63FB68202283F842
:105238003D20FB68002283F83E20FB681B6C43F08E
:105248002002FB681A64FB68002283F83C200123D3
:1052580023E0BB681B0CDBB2012B0DD1FB681B687C
:105268005B69DA43BB6813409BB2002B0CBF012378
:105278000023DBB21A460CE0FB681B689B69DA4323
:10528800BB6813409BB2002B0CBF01230023DBB289
:105298001A46FB799A42B6D0002318461037BD4605
:1052A80080BD80B584B000AFF860B9607A603B60BB
:1052B80051E0FB681B685B6903F48063B3F5806F9A
:1052C80023D1FB681B681A68FB681B6842F40072EC
:1052D8001A60FB681B686FF480625A61FB680022E1
:1052E8001A63FB68202283F83D20FB68002283F8BC
:1052F8003E20FB681B6C43F00402FB681A64FB68E1
:10530800002283F83C20012346E07B68B3F1FF3F8D
:1053180021D0FEF7ABFB02463B68D31A7A689A4263
:1053280002D37B68002B16D1FB6800221A63FB6846
:10533800202283F83D20FB68002283F83E20FB688A
:105348001B6C43F02002FB681A64FB68002283F898
:105358003C20012320E0BB681B0CDBB2012B0CD1E5
:10536800FB681B685B69DA43BB6813409BB2002B80
:1053780014BF01230023DBB20BE0FB681B689B69A9
:10538800DA43BB6813409BB2002B14BF01230023F0
:10539800DBB2002B8DD1002318461037BD4680BDE7
:1053A80080B584B000AFF860B9607A602DE0F86825
:1053B80000F0CEF80346002B01D001232DE0BB6896
:1053C800B3F1FF3F21D0FEF751FB02467B68D31AA9
:1053D800BA689A4202D3BB68002B16D1FB68002238
:1053E8001A63FB68202283F83D20FB68002283F8BB
:1053F8003E20FB681B6C43F02002FB681A64FB68C4
:10540800002283F83C20012307E0FB681B685B69E6
:1054180003F08003802BCAD1002318461037BD46FD
:1054280080BD80B584B000AFF860B9607A602DE0C7
:10543800F86800F08DF80346002B01D001232DE019
:10544800BB68B3F1FF3F21D0FEF710FB02467B6833
:10545800D31ABA689A4202D3BB68002B16D1FB68EC
:1054680000221A63FB68202283F83D20FB68002293
:1054780083F83E20FB681B6C43F02002FB681A642B
:10548800FB68002283F83C20012307E0FB681B68C7
:105498005B6903F00403042BCAD1002318461037B4
:1054A800BD4680BD80B584B000AFF860B9607A6051
:1054B80042E0FB681B685B6903F01003102B19D1ED
:1054C800FB681B686FF010025A61FB6800221A63C0
:1054D800FB68202283F83D20FB68002283F83E20E9
:1054E800FB681A6CFB681A64FB68002283F83C208E
:1054F800012329E0FEF7BAFA02467B68D31ABA6894
:105508009A4202D3BB68002B16D1FB6800221A63AB
:10551800FB68202283F83D20FB68002283F83E20A8
:10552800FB681B6C43F02002FB681A64FB680022CE
:1055380083F83C20012307E0FB681B685B6903F0E4
:105548004003402BB5D1002318461037BD4680BD17
:1055580080B483B000AF78607B681B685B6903F434
:105568008063B3F5806F1BD17B681B686FF4806222
:105578005A617B6800221A637B68202283F83D20E9
:105588007B68002283F83E207B681B6C43F0040292
:105598007B681A647B68002283F83C20012300E0C2
:1055A800002318460C37BD465DF8047B7047F0B5FC
:1055B8008FB00AAF78607B68002B01D101230FE11F
:1055C8007B681B68BB607B6893F8BD33DBB2002B3C
:1055D80006D17B68002283F8BC23786805F082FD39
:1055E8007B68032283F8BD23BB68DB6B03F48073FD
:1055F800002B02D17B6800221A617B681B68184661
:1056080002F075FC7B681B683B607E686D4606F19E
:1056180010040FCC0FC50FCC0FC594E8030085E824
:105628000300331D0ECB386802F04CFB0346002BF9
:1056380005D07B68022283F8BD230123D0E07B6874
:105648001B680021184602F063FC0023FB734AE044
:10565800FA7B79681346DB009B1A9B000B443D33A9
:1056680001221A70FA7B79681346DB009B1A9B00AB
:105678000B443C33FA7B1A70FA7BFB7B98B279684F
:105688001346DB009B1A9B000B44423302461A80E8
:10569800FA7B79681346DB009B1A9B000B443F3367
:1056A80000221A70FA7B79681346DB009B1A9B006C
:1056B8000B44443300221A60FA7B79681346DB00F6
:1056C8009B1A9B000B44483300221A60FA7B7968C6
:1056D8001346DB009B1A9B000B44503300221A60D0
:1056E800FB7B0133FB73FA7B7B685B689A42AFD321
:1056F8000023FB7344E0FA7B79681346DB009B1AAE
:105708009B000B4403F2FD1300221A70FA7B7968A0
:105718001346DB009B1A9B000B4403F5FE73FA7BD0
:105728001A70FA7B79681346DB009B1A9B000B44BE
:1057380003F2FF1300221A70FA7B79681346DB0024
:105748009B1A9B000B4403F5017300221A60FA7B35
:1057580079681346DB009B1A9B000B4403F5027320
:1057680000221A60FA7B79681346DB009B1A9B00BB
:105778000B4403F5047300221A60FB7B0133FB73AF
:10578800FA7B7B685B689A42B5D37B681B683B6091
:105798007E686D4606F110040FCC0FC50FCC0FC5FF
:1057A80094E8030085E80300331D0ECB386802F047
:1057B800FBFB0346002B05D07B68022283F8BD2340
:1057C80001230DE07B68002283F838207B680122E2
:1057D80083F8BD237B681B68184603F077FC002319
:1057E80018461437BD46F0BD80B584B000AF786068
:1057F8007B681B68FB607B6893F8BC33012B01D185
:10580800022320E07B68012283F8BC237B689B6A23
:10581800012B09D17B689B69012B05D0FB689B6B29
:1058280043F48032FB689A637B681B68184602F071
:105838004DFB7B681B68184603F027FC7B68002239
:1058480083F8BC23002318461037BD4680BD90B5A9
:105858008DB000AF78607B681B683B623B6AFB6178
:105868007B681B68184603F0E5FC0346002B40F0F4
:105878009D837B681B68184603F049FC0346002B90
:1058880000F093837B681B68184603F040FC0346CE
:1058980003F00203022B07D17B681B685A697B68F7
:1058A8001B6802F002025A617B681B68184603F005
:1058B8002EFC034603F01003102B61D17B681B6894
:1058C8009A697B681B6822F010029A613B6A1B6A1E
:1058D800BB61BB6903F00F021346DB009B1A9B00F8
:1058E80003F5FC737A68134404337B61BB695B0C72
:1058F80003F00F03022B24D1BA6947F6F073134063
:10590800002B35D07B69D968BB691B099BB2C3F3EF
:105918000A039BB21A46386A03F065FA7B69DA68AB
:10592800BB691B09C3F30A031A447B69DA607B6904
:105938009A69BB691B09C3F30A031A447B699A6114
:1059480016E0BB695B0C03F00F03062B10D17B68D4
:1059580003F5717308221946386A03F044FA7B6923
:105968009A69BB691B09C3F30A031A447B699A61E4
:105978007B681B689A697B681B6842F010029A6111
:105988007B681B68184603F0C2FB034603F4002338
:10599800B3F5002F6ED100237B627B681B68184625
:1059A80003F0C8FBB86262E0BB6A03F00103002B96
:1059B80057D07B681B687A6AD2B21146184603F042
:1059C800EDFB38613B6903F00103002B0CD07B6AC7
:1059D8005A01FB69134403F530631A4601239360A7
:1059E800796A786800F0B0FD3B6903F00803002B82
:1059F8000CD07B6A5A01FB69134403F530631A46DD
:105A080008239360796A786800F0AAFE3B6903F07E
:105A18001003002B08D07B6A5A01FB69134403F575
:105A280030631A46102393603B6903F02003002B70
:105A380008D07B6A5A01FB69134403F530631A46A0
:105A4800202393603B6903F40053002B09D07B6A41
:105A58005A01FB69134403F530631A464FF40053A7
:105A680093607B6A01337B62BB6A5B08BB62BB6A7B
:105A7800002B99D17B681B68184603F048FB034646
:105A880003F48023B3F5802F40F0C0807B681B6847
:105A9800184603F069FBB86200237B62B2E0BB6A78
:105AA80003F00103002B00F0A7807B681B687A6A6B
:105AB800D2B21146184603F08FFB38613B6903F0F8
:105AC8000103002B57D07B6A03F00F03012202FA6F
