:020000040800F2
:1000000000000120C11A0008111A0008171A000880
:100010001D1A0008231A0008291A00080000000011
:100020000000000000000000000000002F1A00087F
:100030003D1A0008000000004B1A0008591A000879
:10004000111B0008111B0008111B0008111B0008E0
:10005000111B0008111B0008651A0008111B00087D
:10006000111B0008111B0008111B0008111B0008C0
:10007000111B0008111B0008111B0008111B0008B0
:10008000111B0008111B0008111B000800000000D4
:10009000000000000000000000000000111B00082C
:1000A000111B0008111B0008111B0008111B000880
:1000B000751A0008111B0008111B0008111B00080D
:1000C000111B0008111B0008111B0008111B000860
:1000D000111B0008111B0008111B00080000000084
:1000E000111B0008111B0008111B00080000000074
:1000F000000000000000000000000000111B0008CC
:1001000000000000111B0008111B0008111B000853
:1001100000000000000000000000000000000000DF
:10012000891A0008111B0008111B0008111B000888
:10013000111B00080000000000000000000000008B
:10014000000000000000000000000000111B00087B
:10015000111B0008111B0008111B0008111B0008CF
:10016000111B0008111B0008000000000000000027
:10017000000000000000000000000000000000007F
:1001800000000000111B000800000000000000003B
:04019000111B000837
:1001940010B5054C237833B9044B13B10448AFF3BD
:1001A40000800123237010BD18000020000000000F
:1001B400BC56000808B5034B1BB103490348AFF311
:1001C400008008BD000000001C000020BC56000890
:1001D40053B94AB9002908BF00281CBF4FF0FF31AA
:1001E4004FF0FF3000F06EB9ADF1080C6DE904CEAC
:1001F40000F006F8DDF804E0DDE9022304B07047FE
:100204002DE9F047089D04468C46002B40F083807E
:100214008A42174647D9B2FA82F242B1C2F12000AB
:1002240024FA00F09140974040EA010C94404FEAD0
:100234001748230CBCFBF8F61FFA87FE08FB16C10F
:1002440043EA014306FB0EF1994209D9FB1806F172
:10025400FF3080F01981994240F21681023E3B44FE
:100264005B1AA4B2B3FBF8F008FB103344EA03446E
:1002740000FB0EFEA64509D93C1900F1FF3380F0BE
:100284000581A64540F2028102383C4440EA06401A
:10029400A4EB0E0400261DB1D4400023C5E900439D
:1002A4003146BDE8F08702B9FFDEB2FA82F2002AD5
:1002B40050D1CB1B4FEA174E1FFA87F80126B3FB28
:1002C400FEFC210C0EFB1C3341EA034108FB0CF33A
:1002D4008B4207D979180CF1FF3002D28B4200F21D
:1002E400E9808446C91AA3B2B1FBFEF00EFB1011DB
:1002F40043EA014408FB00F8A04507D93C1900F182
:10030400FF3302D2A04500F2D9801846A4EB0804BA
:1003140040EA0C40BFE78B4209D9002D00F0B180C0
:100324000026C5E9000130463146BDE8F087B3FA3E
:1003340083F6002E4AD18B4202D3824200F2B88067
:10034400841A61EB030101208C46002DA8D0C5E975
:10035400004CA5E7C2F1200320FA03F6974001FA06
:1003640002F04FEA174ED9403043030CB1FBFEF6BE
:100374001FFA87F80EFB161143EA014306FB08F146
:10038400994204FA02F409D9FB1806F1FF3C80F003
:100394008D80994240F28A80023E3B445B1A81B2CE
:1003A400B3FBFEF00EFB103341EA034100FB08F3FC
:1003B4008B4207D9791800F1FF3C73D28B4271D973
:1003C40002383944CB1A40EA064678E7C6F1200CD5
:1003D40003FA06F422FA0CF31C4320FA0CF701FA90
:1003E40006F34FEA144E21FA0CF11F433B0CB1FB08
:1003F400FEF91FFA84F80EFB191143EA014109FBC7
:1004040008FA8A4502FA06F200FA06F308D96118D6
:1004140009F1FF3048D28A4546D9A9F1020921449D
:10042400A1EB0A01BFB2B1FBFEF00EFB101147EACB
:10043400014700FB08F8B84507D9E71900F1FF3177
:100444002ED2B8452CD90238274440EA0940A7EBFC
:100454000807A0FB02894F45C64649461AD317D060
:100464005DB1B3EB0E0267EB010707FA0CFCF24037
:100474004CEA0202F740C5E9002700263146BDE8F0
:10048400F0872E4628460BE70646E9E61846FDE6C1
:100494004345E5D2B8EB020E69EB04010138DFE70E
:1004A4000846D2E760468DE78146B9E7664675E7B8
:1004B40030464AE7ACF1020C394413E702383C44B5
:1004C40024E700BF704700BF80B500AF00224FF49F
:1004D4008041024802F07CFD00BF80BD0004024060
:1004E40080B500AF01224FF48041024802F070FD54
:1004F40000BF80BD0004024080B483B000AF034657
:10050400FB80FB88012B02D1044B01221A7000BF2F
:100514000C37BD465DF8047B704700BF38000020EF
:1005240080B586B000AF01F0F3FA00F0FBF800F0FC
:10053400DDFA00F0DFF900F0B9FA00F08DFA00F00E
:100544005BF900F03BFA00F003FA6C4804F07AFA25
:100554006B4B1B689A686A4B1B6842F001029A60F5
:1005640000F016FE00F035FC00F080FC03461A464D
:10057400644B1A60634B1B68002B0BD10A210A20C1
:1005840000F070FF01226049604801F001F800F0BA
:10059400C3FEFEE7FF2000F097FD732000F0F5FC9A
:1005A400002000F076FD002000F0CEFC032000F0D7
:1005B400FAFC5749062000F007FD062000F04EFD26
:1005C400002000F0A0FC00F0BEFD022000F07CFC46
:1005D40006237B6100233B610123BB604FF6FF735D
:1005E4007B6004224B49464801F048FB00BF4A4B5C
:1005F4001B68002BFBD0484B00221A60BB68002B01
:1006040051D0444B1B889BB2DBB2803BDBB25AB265
:10061400424B9A703F4B5B889BB2DBB2803BDBB2B0
:100624005AB23E4BDA703B4B9B889BB2DBB2803BA9
:10063400DBB25AB2394B5A70364BDB889BB2DBB211
:10064400803BDBB25AB2354B1A70344B64221A71B8
:10065400324B93F90030DAB2304B93F90130DBB20C
:100664001344DAB22D4B93F90230DBB21344DAB2FD
:100674002A4B93F90330DBB21344DAB2274B1B79CC
:100684001344DAB2254B5A71FFF71EFF7B69DBB2C4
:100694001946224800F06CFDFFF722FF4FF6FF7366
:1006A4007B600023BB607B68002B03D07B68013B2D
:1006B4007B6001E00123BB60194B1B78DBB2002B8C
:1006C4008FD000F028FD0346FB73154B00221A70EF
:1006D400FFF7FAFE00F037FDFB7B03F01003002B5D
:1006E4007FF47FAFFB7B03F02003002B02D00123B8
:1006F400BB6076E700F017FD73E700BFEC05002050
:10070400F80400200800002000000020D45600084F
:10071400585E00084005002034000020F00400204A
:100724003800002080B594B000AF07F120033022D8
:100734000021184604F0B8FF07F10C0300221A60E8
:100744005A609A60DA601A610023BB60284B1B6C04
:10075400274A43F080531364254B1B6C03F08053EA
:10076400BB60BB6800237B60224B1B6823F44043BF
:10077400204A43F4004313601E4B1B6803F44043B8
:100784007B607B6802233B620123FB6210233B6393
:100794000223BB630023FB6308233B6454237B6471
:1007A4000223BB640423FB6407F12003184603F00F
:1007B400BBF90346002B01D000F03CFA0F23FB6089
:1007C40002233B6100237B614FF48053BB61002310
:1007D400FB6107F10C030221184603F01DFC0346DC
:1007E400002B01D000F026FA00BF5037BD4680BD73
:1007F400003802400070004080B584B000AF3B4632
:1008040000221A605A609A60DA60374B374A1A60DD
:10081400354B4FF480325A60334B4FF000729A607C
:10082400314B01221A61304B00221A762E4B0022E2
:1008340083F820202C4B0022DA622B4B2C4A9A623C
:10084400294B0022DA60284B0422DA61264B00226D
:1008540083F83020244B01225A61234801F0CAF95D
:100864000346002B01D000F0E5F901233B6001238E
:100874007B600523BB603B4619461B4801F002FB25
:100884000346002B01D000F0D5F902233B6002237C
:100894007B603B461946144801F0F4FA0346002BEA
:1008A40001D000F0C7F903233B6003237B603B4680
:1008B40019460D4801F0E6FA0346002B01D000F07A
:1008C400B9F904233B6004237B603B461946064880
:1008D40001F0D8FA0346002B01D000F0ABF900BFB9
:1008E4001037BD4680BD00BFF80400200020014041
:1008F4000100000F80B500AF124B134A1A60114B70
:10090400124A5A600F4B00229A600E4B0022DA60A2
:100914000C4B4FF480421A610A4B00225A61094B76
:1009240000229A61074B0022DA61064B00221A6208
:10093400044802F07FFB0346002B01D000F07AF953
:1009440000BF80BD4404002000540040801A06000B
:1009540080B500AF174B184A1A60164B4FF48272D9
:100964005A60144B00229A60124B0022DA60114B39
:1009740000221A610F4B00225A610E4B4FF4007291
:100984009A610C4B0022DA610A4B00221A62094B6D
:1009940000225A62074B00229A62064B0A22DA624C
:1009A400044803F009FD0346002B01D000F042F98E
:1009B40000BF80BD98040020003C004080B586B094
:1009C40000AF07F1080300221A605A609A60DA60E7
:1009D4003B4600221A605A601D4B4FF080421A6059
:1009E4001B4B00225A601A4B00229A60184B194A7A
:1009F400DA60174B00221A61154B00229A611448E1
:100A040003F0D0FF0346002B01D000F013F94FF49C
:100A14008053BB6007F1080319460D4804F074F9CC
:100A24000346002B01D000F005F900233B600023AE
:100A34007B603B461946064804F07AFB0346002BCC
:100A440001D000F0F7F800BF1837BD4680BD00BFE5
:100A5400EC0500201F48010080B500AF114B124A7D
:100A64001A60104B4FF4E1325A600E4B00229A6028
:100A74000C4B0022DA600B4B00221A61094B0C224A
:100A84005A61084B00229A61064B0022DA6105483C
:100A940004F0D0FB0346002B01D000F0CBF800BFDC
:100AA40080BD00BF480500200010014080B582B021
:100AB40000AF00237B600C4B1B6B0B4A43F4800399
:100AC4001363094B1B6B03F480037B607B68002278
:100AD4000021382001F051FD382001F06AFD00BFEB
:100AE4000837BD4680BD00BF0038024080B588B0DD
:100AF40000AF07F10C0300221A605A609A60DA60B2
:100B04001A610023BB60404B1B6B3F4A43F08003D8
:100B140013633D4B1B6B03F08003BB60BB68002376
:100B24007B60394B1B6B384A43F001031363364B2C
:100B34001B6B03F001037B607B6800233B60324B3B
:100B44001B6B314A43F0020313632F4B1B6B03F0FF
:100B540002033B603B6800224FF4C0412B4802F083
:100B640037FA2023FB6002233B6100237B610323CC
:100B7400BB610523FB6107F10C031946244802F00D
:100B8400A3F80123FB604FF404133B6100237B6152
:100B940007F10C0319461D4802F096F841F206438A
:100BA400FB6000233B6100237B6107F10C031946C2
:100BB400164802F089F84FF4C043FB6001233B61FF
:100BC40000237B610023BB6107F10C0319460F4826
:100BD40002F07AF84FF4F053FB6000233B610023EA
:100BE4007B6107F10C031946094802F06DF80022F5
:100BF4000021062001F0C1FC062001F0DAFC00BF50
:100C04002037BD4680BD00BF0038024000040240CA
:100C14000000024080B483B000AF7860044B01222E
:100C24001A6000BF0C37BD465DF8047B704700BFF7
:100C34003400002080B400AF72B600BFFEE70000AD
:100C440080B500AF00224FF40051024802F0C0F911
:100C540000BF80BD0004024080B500AF01224FF404
:100C64000051024802F0B4F900BF80BD0004024004
:100C740080B586B002AF0346FB7107F10F02F91D80
:100C84004FF4FA6300930123064803F01EFC034665
:100C9400002B01D0FFF7CEFFFB7B18461037BD4673
:100CA40080BD00BF9804002080B584B000AF034627
:100CB400FB71FFF7C5FFFB7903F01F03DBB2184696
:100CC400FFF7D6FFFF20FFF7D3FF0346FB73FFF7C1
:100CD400C3FFFB7B18461037BD4680BD80B582B08C
:100CE40000AF03460A46FB711346BB71FFF7A8FF2A
:100CF400FB791F2B10D897F9073003F01F035BB261
:100D040043F020035BB2DBB21846FFF7B1FFBB79B7
:100D14001846FFF7ADFF13E0FB791846FFF7A8FF6D
:100D2400FB79E12B0CD0FB79E22B09D0FB79E32B87
:100D340006D0FB79FF2B03D0BB791846FFF798FF49
:100D4400FFF78AFF00BF0837BD4680BD90B583B06A
:100D540000AF03463960FB711346BB71FFF770FFA8
:100D6400FB791846FFF784FF07E03C68631C3B608F
:100D7400FF20FFF77DFF03462370BB795A1EBA712B
:100D8400002BF2D1FFF768FF00BF0C37BD4690BDC2
:100D940080B582B000AF03463960FB711346BB7166
:100DA400FFF74EFFFB791846FFF762FF06E03B684A
:100DB4005A1C3A601B781846FFF75AFFBB795A1E33
:100DC400BA71002BF3D1FFF747FF00BF0837BD46C8
:100DD40080BD80B500AF08210020FFF77FFF3F21D1
:100DE4000120FFF77BFF03210220FFF777FF032198
:100DF4000320FFF773FF03210420FFF76FFF022195
:100E04000520FFF76BFF0E210620FFF767FF002187
:100E14000720FFF763FF00211120FFF75FFF002188
:100E24001220FFF75BFF00211320FFF757FF00217B
:100E34001420FFF753FF00211520FFF74FFF002177
:100E44001620FFF74BFF00211C20FFF747FF00216E
:100E54001D20FFF743FF00F06EF900F064F900F085
:100E640072F9FFF7F9FE00BF80BD000080B584B0C1
:100E740000AF144BBB600522B9683020FFF788FF30
:100E84003B46052219461020FFF760FF0023FB7341
:100E940010E0FB7B07F11002134413F8102CBB681D
:100EA400591CB9601B789A4201D0002306E0FB7BF1
:100EB4000133FB73FB7B042BEBD90123184610375A
:100EC400BD4680BDE456000880B584B000AF03463B
:100ED400FB710020FFF7E8FE0346FB73FB79022B4E
:100EE40004D1FB7B43F00203FB7303E0FB7B23F0A1
:100EF4000203FB73FB7B19460020FFF7EFFE00BFE4
:100F04001037BD4680BD80B584B000AF0346FB7189
:100F14000020FFF7C9FE0346FB73FB7B23F00103AC
:100F2400FB7397F9073003F001035AB297F90F30B6
:100F340013435BB2FB73FB7B19460020FFF7CEFE25
:100F440000BF1037BD4680BD80B584B000AF0346F6
:100F5400FB710020FFF7A8FE0346FB73FB7B23F025
:100F64000C03FB7397F9073003F00C035AB297F99B
:100F74000F3013435BB2FB73FB7B19460020FFF772
:100F8400ADFE00BF1037BD4680BD80B582B000AF56
:100F94000346FB71FB7919460520FFF79FFE00BF4E
:100FA4000837BD4680BD80B582B000AF0346FB71F3
:100FB400FB79023BDBB219460320FFF78FFE00BF2B
:100FC4000837BD4680BD000080B584B000AF03463D
:100FD4003960FB71FB79062B0AD0062B36DC012B1A
:100FE40002DC002B04DA31E0023B032B2ED823E091
:100FF4000320FFF759FE03460133FB73FB7B3A687A
:1010040013443B60FFF71CFEFB79134AD35C43F0A7
:101014002003DBB21846FFF72BFE3B685A1E3A60EA
:101024001B781846FFF724FEFB7B5A1EFA73002B2D
:10103400F3D1FFF711FE0AE0FB79074AD25C3B6863
:101044001B7819461046FFF749FE00E000BF00BFB9
:101054001037BD4680BD00BF5C5E000880B584B01B
:1010640000AF0346FB710620FFF71EFE0346FB7329
:10107400FB7B23F00603FB73FA7BFB791343FB73BF
:10108400FB7B19460620FFF729FE00BF1037BD463B
:1010940080BD80B584B000AF0346FB710620FFF726
:1010A40003FE0346FB73FB7B23F02803FB73FA7BED
:1010B400FB791343FB73FB7B19460620FFF70EFEF7
:1010C40000BF1037BD4680BD80B584B000AF034675
:1010D400FB71FB79052B04D900210120FFF7FEFDEC
:1010E40015E00120FFF7E0FD0346FB73FB790122C5
:1010F40002FA03F35BB2DB435AB297F90F301340A1
:101104005BB2FB73FB7B19460120FFF7E7FD00BFD1
:101114001037BD4680BD80B500AF0720FFF7C4FD82
:101124000346184680BD80B500AFFF21E120FFF7DC
:10113400D5FD00BF80BD80B500AFFF21E220FFF7E1
:10114400CDFD00BF80BD80B582B000AF0720FFF7A2
:10115400ABFD0346FB71FB7943F07003FB71FB7934
:1011640019460720FFF7BAFD00BF0837BD4680BD0A
:1011740080B582B000AF78600B46FB70FB781A46EE
:101184007968A020FFF704FE00BF0837BD4680BD84
:1011940080B582B000AF00F021FA44F6206301224A
:1011A40078215B4802F088F90346002B01D0002324
:1011B400A9E040F6C4137B6002E07B68013B7B60DE
:1011C4007B68002BF9D1AE220021782000F064FA6C
:1011D40020220021782000F05FFA102200217820DC
:1011E40000F05AFAB0220021782000F055FAC82203
:1011F4000021782000F050FA00220021782000F02D
:101204004BFA10220021782000F046FA40220021F7
:10121400782000F041FA81220021782000F03CFA85
:10122400FF220021782000F037FAA1220021782043
:1012340000F032FAA6220021782000F02DFAA8222C
:101244000021782000F028FA3F220021782000F0C5
:1012540023FAA4220021782000F01EFAD3220021D0
:10126400782000F019FA00220021782000F014FA06
:10127400D5220021782000F00FFAF02200217820F6
:1012840000F00AFAD9220021782000F005FA22227F
:101294000021782000F000FADA220021782000F002
:1012A400FBF912220021782000F0F6F9DB2200215C
:1012B400782000F0F1F920220021782000F0ECF9E8
:1012C4008D220021782000F0E7F9142200217820F3
:1012D40000F0E2F9AF220021782000F0DDF92E229F
:1012E4000021782000F0D8F9002000F043F800F045
:1012F40013F8084B00221A80064B00225A80054B33
:1013040001225A71012318460837BD4680BD00BF2B
:10131400440400203C04002080B582B000AF0023C8
:10132400FB711DE0FB79503BDBB21A4600217820AB
:1013340000F0B2F900220021782000F0ADF910226B
:101344000021782000F0A8F9FB79DB01084A1A444F
:1013540080234021782000F057F9FB790133FB7199
:10136400FB79072BDED900BF00BF0837BD4680BD1F
:101374003C00002080B582B000AF0346FB71FB79CE
:10138400002B01D1002300E0FF234FF480621946B3
:10139400034804F089F900BF0837BD4680BD00BF8B
:1013A4003C00002080B483B000AF0346FB800B46B2
:1013B400BB801346FB70FB887F2B48D8BB883F2B30
:1013C40045D8264B1B79002B06D0FB78002B0CBF8D
:1013D40001230023DBB2FB70FB78012B1AD1FA88BE
:1013E400BB88DB0898B20346DB0113441C4AD35C78
:1013F4005AB2BB8803F00703012101FA03F35BB27D
:10140400134359B2FA880346DB011344C9B2144AA0
:10141400D1541DE0FA88BB88DB0898B20346DB018F
:1014240013440F4AD35C5AB2BB8803F0070301216B
:1014340001FA03F35BB2DB435BB2134059B2FA889F
:101444000346DB011344C9B2054AD15400E000BF8E
:101454000C37BD465DF8047B704700BF3C04002098
:101464003C00002080B483B000AF03460A46FB80F2
:101474001346BB80054AFB881380044ABB8853800B
:1014840000BF0C37BD465DF8047B70473C04002068
:1014940080B586B000AF03463960FB711346BB715B
:1014A4003A4B1B881A463B681B7813447F2B07DC96
:1014B400364B5B881A463B685B7813443F2B01DD4F
:1014C40000235EE000237B614BE03B685A68FB79B4
:1014D400203B3968497801FB03F319467B690B44C7
:1014E4005B0013441B88FB6000233B6130E0FA6817
:1014F4003B6902FA03F303F40043002B10D0234B9F
:101504001A883B699BB2134498B2204B5A887B6972
:101514009BB213449BB2BA791946FFF743FF14E018
:101524001A4B1A883B699BB2134498B2174B5A88DA
:101534007B699BB2134499B2BB79002B0CBF012386
:101544000023DBB21A46FFF72DFF3B6901333B61F1
:101554003B681B781A463B699342C8D37B690133C5
:101564007B613B685B781A467B699342ADD3074B3A
:101574001A883B681B789BB213449AB2034B1A80B7
:10158400FB7918461837BD4680BD00BF3C040020D7
:1015940080B584B000AFF860B9601346FB7112E007
:1015A400FB681B78FA79B9681846FFF771FF0346A0
:1015B4001A46FB681B789A4202D0FB681B7808E045
:1015C400FB680133FB60FB681B78002BE8D1FB68E8
:1015D4001B7818461037BD4680BD000080B483B028
:1015E40000AF084B7B6002E07B68013B7B607B685B
:1015F400002BF9D100BF00BF0C37BD465DF8047B5A
:10160400704700BF90D0030090B5C7B002AF044646
:10161400084639460A601946FB1D22461A70BB1D4E
:1016240002461A703B1D0A461A8007F10C03BA1DC4
:1016340012781A70002387F80F3110E097F80F31F1
:101644003A4612681A4497F80F310133117807F1BA
:101654000C02D15497F80F31013387F80F3197F802
:101664000F319BB23A1D12889A42E7D8FB1D1B78B2
:1016740099B23B1D1B8801339BB207F10C020A206F
:101684000090044801F01AFE00BF07F58A77BD46B2
:1016940090BD00BF4404002080B586B002AF03466D
:1016A400FB710B46BB7113467B71BB793B737B7932
:1016B4007B73FB7999B207F10C020A23009302238E
:1016C400034801F0FBFD00BF1037BD4680BD00BFDD
:1016D4004404002080B483B000AF00237B60104B2F
:1016E4005B6C0F4A43F4804353640D4B5B6C03F40F
:1016F40080437B607B6800233B60094B1B6C084A7A
:1017040043F080531364064B1B6C03F080533B601F
:101714003B6800BF0C37BD465DF8047B704700BFD3
:101724000038024080B58AB000AF786007F1140336
:1017340000221A605A609A60DA601A617B681B683A
:101744002E4A934256D100233B612D4B5B6C2C4AAD
:1017540043F4807353642A4B5B6C03F480733B61E2
:101764003B690023FB60264B1B6B254A43F00103B6
:101774001363234B1B6B03F00103FB60FB681E2305
:101784007B610323BB610023FB6107F1140319464A
:101794001C4801F099FA1C4B1C4A1A601A4B00228F
:1017A4005A60194B00229A60174B0022DA60164BDC
:1017B4004FF480621A61144B4FF400625A61124B69
:1017C4004FF400529A61104B0022DA610E4B002252
:1017D4001A620D4B00225A620B4800F005FF0346C3
:1017E400002B01D0FFF726FA7B68074A9A63064A62
:1017F4007B68936300BF2837BD4680BD002001404D
:1018040000380240000002408C05002010640240B1
:1018140080B58AB000AF786007F1140300221A6023
:101824005A609A60DA601A617B681B68194A9342AD
:101834002CD100233B61184B1B6B174A43F0020366
:101844001363154B1B6B03F002033B613B694FF4BD
:1018540040737B611223BB610023FB6103233B6262
:1018640004237B6207F1140319460C4801F02CFA97
:101874000023FB60084B1B6C074A43F400131364FA
:10188400054B1B6C03F40013FB60FB6800BF283797
:10189400BD4680BD005400400038024000040240B0
:1018A40080B58AB000AF786007F1140300221A6093
:1018B4005A609A60DA601A617B681B68194A93421D
:1018C4002BD100233B61184B1B6C174A43F4004394
:1018D4001364154B1B6C03F400433B613B69002309
:1018E400FB60114B1B6B104A43F0020313630E4B56
:1018F4001B6B03F00203FB60FB6838237B6102234C
:10190400BB610023FB6103233B6206237B6207F177
:1019140014031946054801F0D7F900BF2837BD461E
:1019240080BD00BF003C004000380240000402407B
:1019340080B584B000AF78607B681B68B3F1804FDA
:1019440015D10023FB600C4B1B6C0B4A43F00103C5
:101954001364094B1B6C03F00103FB60FB6800225A
:1019640000211C2000F009FE1C2000F022FE00BF14
:101974001037BD4680BD00BF0038024080B58AB034
:1019840000AF786007F1140300221A605A609A606D
:10199400DA601A617B681B68194A93422BD10023D1
:1019A4003B61184B5B6C174A43F010035364154BAF
:1019B4005B6C03F010033B613B690023FB60114B3C
:1019C4001B6B104A43F0020313630E4B1B6B03F0B3
:1019D4000203FB60FB68C0237B610223BB6100231D
:1019E400FB6103233B6207237B6207F1140319465F
:1019F400054801F069F900BF2837BD4680BD00BF26
:101A040000100140003802400004024080B400AFDE
:101A1400FEE780B400AFFEE780B400AFFEE780B419
:101A240000AFFEE780B400AFFEE780B400AF00BFB4
:101A3400BD465DF8047B704780B400AF00BFBD466F
:101A44005DF8047B704780B400AF00BFBD465DF80D
:101A5400047B704780B500AF00F0ACF800BF80BDD8
:101A640080B500AF012001F0CDFA00BF80BD0000B9
:101A740080B500AF024803F03FF800BF80BD00BF4F
:101A8400EC05002080B500AF024800F0B3FE00BFB3
:101A940080BD00BF8C05002080B400AF064BD3F896
:101AA4008830054A43F47003C2F8883000BFBD464D
:101AB4005DF8047B704700BF00ED00E0DFF834D030
:101AC4000D480E490E4A002302E0D458C450043392
:101AD400C4188C42F9D30B4A0B4C002301E0136069
:101AE4000432A242FBD3FFF7D7FF03F0B9FDFEF7A0
:101AF40017FD70470000012000000020180000209E
:101B0400945E00081800002038060020FEE700005C
:101B140080B500AF0E4B1B680D4A43F4007313608D
:101B24000B4B1B680A4A43F480631360084B1B6821
:101B3400074A43F480731360032000F013FD0F2061
:101B440000F008F8FFF7C6FD0023184680BD00BF6B
:101B5400003C024080B582B000AF7860124B1A6836
:101B6400124B1B7819464FF47A73B3FBF1F3B2FBB3
:101B7400F3F3184600F02BFD0346002B01D001239C
:101B84000EE07B680F2B0AD8002279684FF0FF30F3
:101B940000F0F3FC064A7B681360002300E0012395
:101BA40018460837BD4680BD0C00002014000020F4
:101BB4001000002080B400AF064B1B781A46064B79
:101BC4001B681344044A136000BFBD465DF8047BE0
:101BD400704700BF140000203406002080B400AF1A
:101BE400034B1B681846BD465DF8047B704700BF75
:101BF4003406002080B584B000AF78600023FB7306
:101C04007B68002B01D1012333E07B681B6C002B24
:101C140009D17868FFF786FD7B6800225A647B68E7
:101C2400002283F83C207B681B6C03F01003002B1C
:101C340018D17B681B6C23F4885323F0020343F010
:101C440002027B681A64786800F03EFA7B6800221E
:101C54005A647B681B6C23F0030343F001027B6826
:101C64001A6401E00123FB737B68002283F83C20A3
:101C7400FB7B18461037BD4680BD000080B586B09A
:101C840000AFF860B9607A6000233B61FB6893F8A9
:101C94003C30012B01D10223CEE0FB68012283F802
:101CA4003C20FB681B689B6803F00103012B18D0E0
:101CB400FB681B689A68FB681B6842F001029A6023
:101CC4005F4B1B685F4AA2FB03239A0C13465B001D
:101CD40013443B6102E03B69013B3B613B69002BE0
:101CE400F9D1FB681B689B6803F48073B3F5807FAC
:101CF40007D1FB681B689A68FB681B6822F4807232
:101D04009A60FB681B689B6803F00103012B40F099
:101D14008680FB681B6C23F4E06323F0010343F427
:101D24008072FB681A64FB681B685B6803F4806359
:101D3400002B07D0FB681B6C23F4405343F4805200
:101D4400FB681A64FB681B6C03F48053B3F5805F73
:101D540006D1FB685B6C23F00602FB685A6402E060
:101D6400FB6800225A64FB68002283F83C20364B4F
:101D74007B61FB689B6B354ADA63FB689B6B344A77
:101D84001A64FB689B6B334ADA64FB681B686FF068
:101D940022021A60FB681B685A68FB681B6842F0E1
:101DA40080625A60FB681B689A68FB681B6842F48F
:101DB40080729A60FB68986BFB681B684C33194609
:101DC400BA687B6800F0BEFC7B695B6803F01F03A4
:101DD400002B0FD1FB681B689B6803F04053002B5A
:101DE40029D1FB681B689A68FB681B6842F0804233
:101DF4009A6020E0FB681B68174A93421BD1FB687A
:101E04001B689B6803F04053002B14D1FB681B68CC
:101E14009A68FB681B6842F080429A600BE0FB689A
:101E24001B6C43F01002FB681A64FB685B6C43F0A4
:101E34000102FB685A64002318461837BD4680BD6A
:101E44000C00002083DE1B4300230140C522000850
:101E54007F2300089B2300080020014080B483B046
:101E640000AF786000BF0C37BD465DF8047B704757
:101E740080B483B000AF786000BF0C37BD465DF816
:101E8400047B704780B485B000AF7860396000236C
:101E9400BB607B6893F83C30012B01D1022305E140
:101EA4007B68012283F83C203B681B68092B25D9F9
:101EB4007B681B68D9683B681B689BB21A4613464B
:101EC4005B0013441E3B072202FA03F3DA437B68E8
:101ED4001B680A40DA607B681B68D9683B689A68AB
:101EE4003B681B689BB2184603465B0003441E3BD9
:101EF4009A407B681B680A43DA6022E07B681B68AF
:101F040019693B681B689BB21A4613465B0013446D
:101F1400072202FA03F3DA437B681B680A401A615A
:101F24007B681B6819693B689A683B681B689BB2AD
:101F3400184603465B0003449A407B681B680A43C7
:101F44001A613B685B68062B24D87B681B68596B55
:101F54003B685A6813469B001344053B1F2202FA50
:101F640003F3DA437B681B680A405A637B681B6887
:101F7400596B3B681B689BB218463B685A6813460A
:101F84009B001344053B00FA03F27B681B680A4379
:101F94005A634CE03B685B680C2B24D87B681B6855
:101FA400196B3B685A6813469B001344233B1F225A
:101FB40002FA03F3DA437B681B680A401A637B68FE
:101FC4001B68196B3B681B689BB218463B685A68D0
:101FD40013469B001344233B00FA03F27B681B68FF
:101FE4000A431A6323E07B681B68D96A3B685A6812
:101FF40013469B001344413B1F2202FA03F3DA43C6
:102004007B681B680A40DA627B681B68D96A3B6894
:102014001B689BB218463B685A6813469B001344DE
:10202400413B00FA03F27B681B680A43DA62224BE5
:10203400FB607B681B68214A934209D13B681B689B
:10204400122B05D1FB685B6843F48002FB685A607D
:102054007B681B68194A934223D13B681B68102B89
:1020640003D03B681B68112B1BD1FB685B6843F4EE
:102074000002FB685A603B681B68102B11D1104B9F
:102084001B68104AA2FB03239A0C13469B001344BB
:102094005B00BB6002E0BB68013BBB60BB68002B1C
:1020A400F9D17B68002283F83C20002318461437BA
:1020B400BD465DF8047B70470023014000200140C9
:1020C4000C00002083DE1B4380B485B000AF786031
:1020D400794BFB60FB685B6823F44032FB685A6011
:1020E400FB685A687B685B681A43FB685A607B68C4
:1020F4001B685A687B681B6822F480725A607B688C
:102104001B6859687B681B691A027B681B680A4351
:102114005A607B681B685A687B681B6822F04072AF
:102124005A607B681B6859687B689A687B681B687F
:102134000A435A607B681B689A687B681B6822F4B0
:1021440000629A607B681B6899687B68DA687B68C0
:102154001B680A439A607B689B6A584A934222D060
:102164007B681B689A687B681B6822F070629A60BF
:102174007B681B6899687B689A6A7B681B680A435A
:102184009A607B681B689A687B681B6822F04052DF
:102194009A607B681B6899687B68DA6A7B681B684D
:1021A4000A439A600FE07B681B689A687B681B6827
:1021B40022F070629A607B681B689A687B681B686F
:1021C40022F040529A607B681B689A687B681B689F
:1021D40022F002029A607B681B6899687B681B7E08
:1021E4005A007B681B680A439A607B6893F8203026
:1021F400002B1BD07B681B685A687B681B6842F401
:1022040000625A607B681B685A687B681B6822F40A
:1022140060425A607B681B6859687B685B6A013B53
:102224005A037B681B680A435A6007E07B681B6893
:102234005A687B681B6822F400625A607B681B68DA
:10224400DA6A7B681B6822F47002DA627B681B68B6
:10225400D96A7B68DB69013B1A057B681B680A4302
:10226400DA627B681B689A687B681B6822F40072D8
:102274009A607B681B6899687B6893F830305A02CF
:102284007B681B680A439A607B681B689A687B6852
:102294001B6822F480629A607B681B6899687B687B
:1022A4005B699A027B681B680A439A6000BF143713
:1022B400BD465DF8047B7047002301400100000F18
:1022C40080B584B000AF78607B689B6BFB60FB6873
:1022D4001B6C03F05003002B3CD1FB681B6C43F4D4
:1022E4000072FB681A64FB681B689B6803F0405328
:1022F400002B2BD1FB681B7E002B27D1FB681B68AE
:10230400DB6A03F47003002B06D0FB681B689B6830
:1023140003F48063002B19D1FB681B685A68FB68BF
:102324001B6822F020025A60FB681B6C23F4807245
:10233400FB681A64FB681B6C03F48053002B05D103
:10234400FB681B6C43F00102FB681A64F868FEF733
:1023540061FC0EE0FB681B6C03F01003002B03D040
:10236400F868FFF785FD04E0FB689B6BDB6C78681D
:10237400984700BF1037BD4680BD80B584B000AF1C
:1023840078607B689B6BFB60F868FFF767FD00BFB4
:102394001037BD4680BD80B584B000AF78607B68DF
:1023A4009B6BFB60FB6840221A64FB685B6C43F028
:1023B4000402FB685A64F868FFF75AFD00BF10373F
:1023C400BD4680BD80B485B000AF78607B6803F003
:1023D4000703FB600C4BDB68BB60BA684FF6FF0376
:1023E4001340BB60FB681A02BB68134343F0BF632E
:1023F40043F40033BB60044ABB68D36000BF1437A6
:10240400BD465DF8047B704700ED00E080B400AF8A
:10241400044BDB681B0A03F007031846BD465DF84E
:10242400047B704700ED00E080B483B000AF034646
:10243400FB7197F90730002B0BDBFB7903F01F02CC
:10244400074997F907305B09012000FA02F241F8C5
:10245400232000BF0C37BD465DF8047B704700BFE6
:1024640000E100E080B483B000AF03463960FB7143
:1024740097F90730002B0ADB3B68DAB20C4997F96D
:1024840007301201D2B20B4483F800230AE03B6800
:10249400DAB20849FB7903F00F03043B1201D2B20C
:1024A4000B441A7600BF0C37BD465DF8047B7047B9
:1024B40000E100E000ED00E080B489B000AFF86016
:1024C400B9607A60FB6803F00703FB61FB69C3F141
:1024D4000703042B28BF0423BB61FB690433062BC9
:1024E40002D9FB69033B00E000237B614FF0FF321C
:1024F400BB6902FA03F3DA43BB681A407B699A406A
:102504004FF0FF317B6901FA03F3D9437B680B4039
:10251400134318462437BD465DF8047B704700001A
:1025240080B582B000AF78607B68013BB3F1807FF7
:1025340001D301230FE00A4A7B68013B53600F215A
:102544004FF0FF30FFF78EFF054B00229A60044BDB
:1025540007221A60002318460837BD4680BD00BF15
:1025640010E000E080B582B000AF78607868FFF7D3
:1025740029FF00BF0837BD4680BD80B586B000AFD7
:102584000346B9607A60FB7300237B61FFF73EFF6B
:1025940078617A68B9687869FFF78EFF024697F91F
:1025A4000F3011461846FFF75DFF00BF1837BD46D0
:1025B40080BD80B582B000AF0346FB7197F9073048
:1025C4001846FFF731FF00BF0837BD4680BD80B510
:1025D40082B000AF78607868FFF7A2FF0346184620
:1025E4000837BD4680BD000080B586B000AF786076
:1025F40000237B61FFF7F2FA38617B68002B01D17D
:10260400012399E07B68022283F835207B6800224D
:1026140083F834207B681B681A687B681B6822F087
:1026240001021A600FE0FFF7D9FA02463B69D31A98
:10263400052B08D97B6820225A657B68032283F81E
:102644003520032378E07B681B681B6803F00103D3
:10265400002BE8D17B681B681B687B617A69384B67
:1026640013407B617B685A687B689B681A437B686C
:10267400DB681A437B681B691A437B685B691A43EE
:102684007B689B691A437B68DB691A437B681B6A16
:1026940013437A6913437B617B685B6A042B07D11C
:1026A4007B68DA6A7B681B6B13437A6913437B612B
:1026B4007B681B687A691A607B681B685B697B614D
:1026C4007B6923F007037B617B685B6A7A69134348
:1026D4007B617B685B6A042B17D17B689B6A7A6990
:1026E40013437B617B68DB6A002B0ED0786800F0B3
:1026F4006FFA0346002B08D07B6840225A657B683A
:10270400012283F83520012316E07B681B687A696F
:102714005A61786800F026FA0346FB607B68DB6D3B
:102724003F229A40FB689A607B6800225A657B6866
:10273400012283F83520002318461837BD4680BD92
:102744003F8010F080B586B000AFF860B9607A6061
:102754003B600023FB75FB689B6D3B61FB6893F852
:102764003430012B01D1022340E0FB68012283F8BD
:102774003420FB6893F83530DBB2012B2FD1FB6892
:10278400022283F83520FB6800225A653B687A6888
:10279400B968F86800F0B8F9FB68DB6D3F229A402D
:1027A4003B699A60FB681B681A68FB681B6842F007
:1027B40016021A60FB681B6C002B07D0FB681B68B1
:1027C4001A68FB681B6842F008021A60FB681B6801
:1027D4001A68FB681B6842F001021A6005E0FB6896
:1027E400002283F834200223FB75FB7D184618373A
:1027F400BD4680BD80B586B000AF78600023BB6065
:10280400924B1B68924AA2FB03239B0A7B617B6861
:102814009B6D3B613B691B68FB607B68DB6D082239
:102824009A40FB681340002B1AD07B681B681B6816
:1028340003F00403002B13D07B681B681A687B68C1
:102844001B6822F004021A607B68DB6D08229A4040
:102854003B699A607B685B6D43F001027B685A6553
:102864007B68DB6D01229A40FB681340002B12D079
:102874007B681B685B6903F08003002B0BD07B68CB
:10288400DB6D01229A403B699A607B685B6D43F083
:1028940002027B685A657B68DB6D04229A40FB6800
:1028A4001340002B12D07B681B681B6803F00203E3
:1028B400002B0BD07B68DB6D04229A403B699A6045
:1028C4007B685B6D43F004027B685A657B68DB6D53
:1028D40010229A40FB681340002B43D07B681B688E
:1028E4001B6803F00803002B3CD07B68DB6D1022CF
:1028F4009A403B699A607B681B681B6803F48023D9
:10290400002B18D07B681B681B6803F40023002B82
:1029140008D17B681B6C002B24D07B681B6C786807
:1029240098471FE07B689B6C002B1BD07B689B6CDB
:102934007868984716E07B681B681B6803F480730B
:10294400002B07D17B681B681A687B681B6822F020
:1029540008021A607B681B6C002B03D07B681B6C1D
:10296400786898477B68DB6D20229A40FB681340A7
:10297400002B00F08E807B681B681B6803F010033B
:10298400002B00F086807B68DB6D20229A403B6937
:102994009A607B6893F83530DBB2052B36D17B68BF
:1029A4001B681A687B681B6822F016021A607B6831
:1029B4001B685A697B681B6822F080025A617B6835
:1029C4001B6C002B03D17B689B6C002B07D07B68AE
:1029D4001B681A687B681B6822F008021A607B680F
:1029E400DB6D3F229A403B699A607B68012283F841
:1029F40035207B68002283F834207B681B6D002B14
:102A04007DD07B681B6D7868984778E07B681B688D
:102A14001B6803F48023002B1CD07B681B681B6895
:102A240003F40023002B08D17B685B6C002B30D0AF
:102A34007B685B6C786898472BE07B68DB6B002BCA
:102A440027D07B68DB6B7868984722E00C00002075
:102A5400B5814E1B7B681B681B6803F48073002BD5
:102A64000FD17B681B681A687B681B6822F0100210
:102A74001A607B68012283F835207B68002283F882
:102A840034207B68DB6B002B03D07B68DB6B7868BE
:102A940098477B685B6D002B32D07B685B6D03F0DD
:102AA4000103002B22D07B68052283F835207B6844
:102AB4001B681A687B681B6822F001021A60BB68F5
:102AC4000133BB607A699A4207D37B681B681B6831
:102AD40003F00103002BF2D100E000BF7B68012268
:102AE40083F835207B68002283F834207B68DB6C14
:102AF400002B05D07B68DB6C7868984700E000BF4A
:102B04001837BD4680BD00BF80B485B000AFF86003
:102B1400B9607A603B60FB681B681A68FB681B68D5
:102B240022F480221A60FB681B683A685A60FB68CA
:102B34009B68402B08D1FB681B687A689A60FB6825
:102B44001B68BA68DA6007E0FB681B68BA689A60B9
:102B5400FB681B687A68DA6000BF1437BD465DF80D
:102B6400047B704780B485B000AF78607B681B68D5
:102B7400DBB2103B144AA2FB03231B09FB60134A7C
:102B8400FB6813441B781A467B68DA65FB68032BE1
:102B940009D97B681B6823F47F7323F003031A1D90
:102BA4007B689A6507E07B681B6823F47F7323F0D6
:102BB40003037A6893657B689B6D18461437BD469A
:102BC4005DF8047B704700BFABAAAAAA7C5E00082C
:102BD40080B485B000AF78600023FB737B689B6A88
:102BE400BB607B689B69002B1FD1BB68032B56D845
:102BF40001A252F823F000BF0D2C00081F2C00087E
:102C04000D2C0008A32C00087B68DB6A03F080739A
:102C1400002B46D00123FB7343E07B68DB6AB3F1EE
:102C2400C07F40D10123FB733DE07B689B69B3F512
:102C3400005F21D1BB68032B37D801A252F823F0DF
:102C4400552C00085B2C0008552C00086D2C00083E
:102C54000123FB7330E07B68DB6A03F08073002B95
:102C640025D00123FB7322E07B68DB6AB3F1C07FCC
:102C74001FD10123FB731CE0BB68022B03D9BB6883
:102C8400032B03D018E00123FB7315E07B68DB6A98
:102C940003F08073002B0ED00123FB730BE000BF05
:102CA4000AE000BF08E000BF06E000BF04E000BF88
:102CB40002E000BF00E000BFFB7B18461437BD46AE
:102CC4005DF8047B704700BF80B489B000AF7860C2
:102CD400396000237B6100233B610023BB61002337
:102CE400FB6159E10122FB6902FA03F37B613B6852
:102CF4001B687A6913403B613A697B699A4240F0E8
:102D040048813B685B6803F00303012B05D03B68F3
:102D14005B6803F00303022B30D17B689B68BB61C3
:102D2400FB695B00032202FA03F3DB43BA69134035
:102D3400BB613B68DA68FB695B0002FA03F3BA69BA
:102D44001343BB617B68BA699A607B685B68BB614B
:102D54000122FB6902FA03F3DB43BA691340BB6146
:102D64003B685B681B0903F00102FB6902FA03F389
:102D7400BA691343BB617B68BA695A603B685B6894
:102D840003F00303032B17D07B68DB68BB61FB698B
:102D94005B00032202FA03F3DB43BA691340BB610D
:102DA4003B689A68FB695B0002FA03F3BA69134350
:102DB400BB617B68BA69DA603B685B6803F0030354
:102DC400022B23D1FB69DA087B68083253F82230DE
:102DD400BB61FB6903F007039B000F2202FA03F3B4
:102DE400DB43BA691340BB613B681A69FB6903F0B2
:102DF40007039B0002FA03F3BA691343BB61FB693F
:102E0400DA087B680832B96943F822107B681B68CA
:102E1400BB61FB695B00032202FA03F3DB43BA697B
:102E24001340BB613B685B6803F00302FB695B0012
:102E340002FA03F3BA691343BB617B68BA691A6087
:102E44003B685B6803F44033002B00F0A28000234E
:102E5400FB60574B5B6C564A43F480435364544BBA
:102E64005B6C03F48043FB60FB68524AFB699B087C
:102E7400023352F82330BB61FB6903F003039B0068
:102E84000F2202FA03F3DB43BA691340BB617B6888
:102E9400494A934219D07B68484A934213D07B68CD
:102EA400474A93420DD07B68464A934207D07B68D9
:102EB400454A934201D1042308E0072306E0032393
:102EC40004E0022302E0012300E00023FA6902F097
:102ED400030292009340BA691343BB613549FB690D
:102EE4009B080233BA6941F82320384B1B68BB6145
:102EF4003B69DB43BA691340BB613B685B6803F41D
:102F04008033002B03D0BA693B691343BB612F4A5A
:102F1400BB6913602D4B5B68BB613B69DB43BA69DA
:102F24001340BB613B685B6803F40033002B03D0A0
:102F3400BA693B691343BB61244ABB695360234BA1
:102F44009B68BB613B69DB43BA691340BB613B6867
:102F54005B6803F48013002B03D0BA693B69134305
:102F6400BB611A4ABB699360184BDB68BB613B6960
:102F7400DB43BA691340BB613B685B6803F400132D
:102F8400002B03D0BA693B691343BB610F4ABB6989
:102F9400D360FB690133FB61FB690F2B7FF6A2AEA3
:102FA40000BF00BF2437BD465DF8047B704700BFF7
:102FB4000038024000380140000002400004024092
:102FC40000080240000C024000100240003C014096
:102FD40080B483B000AF78600B467B8013467B706F
:102FE4007B78002B03D07A887B689A6103E07B8826
:102FF4001A047B689A6100BF0C37BD465DF8047BF8
:103004007047000080B582B000AF0346FB80084BD8
:103014005A69FB881340002B06D0054AFB8853618C
:10302400FB881846FDF768FA00BF0837BD4680BD27
:10303400003C014080B584B000AF78607B68002B11
:1030440001D101232BE17B6893F83D30DBB2002BE7
:1030540006D17B68002283F83C207868FEF7D8FB11
:103064007B68242283F83D207B681B681A687B6890
:103074001B6822F001021A607B681B681A687B686F
:103084001B6842F400421A607B681B681A687B68FC
:103094001B6822F400421A6001F066F9F8607B684C
:1030A4005B68814A934207D8FB68804A934294BF85
:1030B40001230023DBB206E0FB687D4A934294BF00
:1030C40001230023DBB2002B01D00123E7E0FB68DE
:1030D400784AA2FB03239B0CBB607B681B685B687C
:1030E40023F03F017B681B68BA680A435A607B6817
:1030F4001B681B6A23F03F017B685B686A4A934242
:1031040002D8BB68013309E0BB684FF4967202FB36
:1031140003F3694AA2FB03239B0901337A6812680B
:103124000B4313627B681B68DB6923F44F4222F074
:10313400FF027B685B685C498B4219D8FB68591EA7
:103144007B685B685B00B1FBF3F3591C40F6FC73CE
:103154000B40002B0AD0FB68591E7B685B685B0040
:10316400B1FBF3F30133C3F30B0351E004234FE04A
:103174007B689B68002B11D1FB68581E7B685968DB
:103184000B465B000B44B0FBF3F30133C3F30B03B7
:10319400002B0CBF01230023DBB212E0FB68581E96
:1031A4007B6859680B469B000B4499000B44B0FBA9
:1031B400F3F30133C3F30B03002B0CBF01230023F0
:1031C400DBB2002B01D0012322E07B689B68002B3B
:1031D4000ED1FB68581E7B6859680B465B000B4494
:1031E400B0FBF3F30133C3F30B0343F400430FE0E9
:1031F400FB68581E7B6859680B469B000B4499007A
:103204000B44B0FBF3F30133C3F30B0343F4404328
:10321400796809681343CB617B681B681B6823F0DA
:10322400C0017B68DA697B681B6A1A437B681B6888
:103234000A431A607B681B689B6823F4034323F0EA
:10324400FF037A6811697A68D26811437A68126850
:103254000B4393607B681B68DB6823F0FF017B688A
:103264005A697B689B691A437B681B680A43DA6066
:103274007B681B681A687B681B6842F001021A604D
:103284007B6800221A647B68202283F83D207B68D7
:1032940000221A637B68002283F83E20002318462C
:1032A4001037BD4680BD00BFA08601007F841E008C
:1032B400FF083D0083DE1B43D34D621080B588B008
:1032C40002AFF8607A601A460B467B8113463B8155
:1032D400FEF784FC7861FB6893F83D30DBB2202B69
:1032E40040F0E0807B690093192301227049F8685B
:1032F40000F092FA0346002B01D00223D3E0FB68CE
:1033040093F83C30012B01D10223CCE0FB6801226D
:1033140083F83C20FB681B681B6803F00103012B46
:1033240007D0FB681B681A68FB681B6842F001023F
:103334001A60FB681B681A68FB681B6822F4006249
:103344001A60FB68212283F83D20FB68102283F871
:103354003E20FB6800221A64FB687A685A62FB68A4
:103364003A895A85FB685B8D9AB2FB681A85FB68BB
:10337400504ADA6279897B693A6AF86800F0CAF9D6
:103384000346002B01D001238DE000233B61FB6841
:103394001B685B693B61FB681B689B693B613B691C
:1033A40066E07A69396AF86800F00CFB0346002B82
:1033B4000DD0FB681B6C042B07D1FB681B681A68D3
:1033C400FB681B6842F400721A6001236BE0FB681F
:1033D4005B6A1A78FB681B681A61FB685B6A5A1C93
:1033E400FB685A62FB685B8D9BB2013B9AB2FB6837
:1033F4005A85FB681B8D013B9AB2FB681A85FB68F2
:103404001B685B6903F00403042B1BD1FB681B8D51
:10341400002B17D0FB685B6A1A78FB681B681A617B
:10342400FB685B6A5A1CFB685A62FB685B8D9BB243
:10343400013B9AB2FB685A85FB681B8D013B9AB22B
:10344400FB681A857A69396AF86800F0FCFA034661
:10345400002B0DD0FB681B6C042B07D1FB681B6889
:103464001A68FB681B6842F400721A6001231AE0B0
:10347400FB681B8D002B94D1FB681B681A68FB68E2
:103484001B6842F400721A60FB68202283F83D2016
:10349400FB68002283F83E20FB68002283F83C206E
:1034A400002300E0022318461837BD4680BD00BF44
:1034B400020010000000FFFF80B58AB002AFF86080
:1034C4007A603B600B467B81FEF788FBF861012341
:1034D400BB61FB6893F83D30DBB2202B40F01181D7
:1034E400FB690093192301228849F86800F094F9D4
:1034F4000346002B01D0022304E1FB6893F83C301F
:10350400012B01D10223FDE0FB68012283F83C205A
:10351400FB681B681B6803F00103012B07D0FB68E1
:103524001B681A68FB681B6842F001021A60FB689A
:103534001B681A68FB681B6822F400621A60FB6847
:10354400242283F83D20FB6800221A64FB68704A39
:10355400DA62FB681B681A68FB681B6842F48072B5
:103564001A60FB6900933B6800224FF00111F86870
:1035740000F052F90346002B0DD0FB681B681B6852
:1035840003F48073B3F5807F03D1FB684FF40072BA
:103594001A640323B6E07B89DBB21A46FB681B6816
:1035A40002F0FE021A61FEF719FBF861FB681B6862
:1035B4005B6903F00203022B0CBF01230023DBB27F
:1035C400FB75FB681B685B6903F48063B3F5806F6C
:1035D4000CBF01230023DBB2BB7525E0FEF7FEFA26
:1035E4000246FB69D31A3A689A4202D33B68002B1D
:1035F40003D1FB68A02283F83D20FB681B685B694C
:1036040003F00203022B0CBF01230023DBB2FB7582
:10361400FB681B685B6903F48063B3F5806F0CBFC0
:1036240001230023DBB2BB75FB6893F83D30DBB2AA
:10363400A02B05D0FB7D002B02D1BB7D002BCDD070
:10364400FB68202283F83D20FB681B685B6903F05C
:103654000203022B29D1FB681B681A68FB681B68EC
:1036640042F400721A6000233B61FB681B685B69CB
:103674003B61FB681B689B693B613B69FB69009389
:10368400192301222149F86800F0C6F80346002BEB
:1036940001D0012336E0FB68202283F83D20FB683B
:1036A400002283F83C2000232CE0FB681B681A6886
:1036B400FB681B6842F400721A60FB681B686FF4B5
:1036C40080625A61FB690093192301220F49F8684B
:1036D40000F0A2F80346002B01D0012312E0BB69DD
:1036E4000133BB61BA697B689A42FFF432AFFB686D
:1036F400202283F83D20FB68002283F83C2001232C
:1037040000E0022318462037BD4680BD02001000A9
:103714000000FFFF80B588B002AFF8607A603B60BC
:103724000B467B81FB68DB6A7B617B69082B06D0D7
:103734007B69012B03D07B6913F5803F08D1FB68BB
:103744001B681A68FB681B6842F480721A600BE0FD
:10375400FB681B6B122B07D1FB681B681A68FB689C
:103764001B6842F480721A603B6800937B680022F5
:103774004FF00111F86800F04FF80346002B0DD00C
:10378400FB681B681B6803F48073B3F5807F03D167
:10379400FB684FF400721A64032335E0FB681B696D
:1037A400B3F5804F08D17B89DBB21A46FB681B68EE
:1037B40002F0FE021A611BE07B89DB11DBB203F02D
:1037C4000603DBB263F00F03DAB2FB681B681A610D
:1037D4003B687A680E49F86800F075F80346002BD8
:1037E40001D0012310E07B89DAB2FB681B681A61FF
:1037F4003B687A680749F86800F065F80346002BCF
:1038040001D0012300E0002318461837BD4680BDCF
:10381400080001000200010080B584B000AFF86028
:10382400B9603B601346FB7125E03B68B3F1FF3F91
:1038340021D0FEF7D3F90246BB69D31A3A689A42FB
:1038440002D33B68002B16D1FB6800221A63FB6885
:10385400202283F83D20FB68002283F83E20FB6889
:103864001B6C43F02002FB681A64FB68002283F897
:103874003C20012323E0BB681B0CDBB2012B0DD1E0
:10388400FB681B685B69DA43BB6813409BB2002B7F
:103894000CBF01230023DBB21A460CE0FB681B6853
:1038A4009B69DA43BB6813409BB2002B0CBF012316
:1038B4000023DBB21A46FB799A42B6D0002318469D
:1038C4001037BD4680BD80B584B000AFF860B960E4
:1038D4007A603B6051E0FB681B685B6903F48063BA
:1038E400B3F5806F23D1FB681B681A68FB681B68FB
:1038F40042F400721A60FB681B686FF480625A61BC
:10390400FB6800221A63FB68202283F83D20FB68D1
:10391400002283F83E20FB681B6C43F00402FB6822
:103924001A64FB68002283F83C20012346E07B688C
:10393400B3F1FF3F21D0FEF751F902463B68D31A99
:103944007A689A4202D37B68002B16D1FB68002266
:103954001A63FB68202283F83D20FB68002283F869
:103964003E20FB681B6C43F02002FB681A64FB6872
:10397400002283F83C20012320E0BB681B0CDBB24F
:10398400012B0CD1FB681B685B69DA43BB681340ED
:103994009BB2002B14BF01230023DBB20BE0FB68B6
:1039A4001B689B69DA43BB6813409BB2002B14BFAE
:1039B40001230023DBB2002B8DD1002318461037DE
:1039C400BD4680BD80B584B000AFF860B9607A6050
:1039D4002DE0F86800F078F80346002B01D00123AD
:1039E4002DE0BB68B3F1FF3F21D0FEF7F7F80246A4
:1039F4007B68D31ABA689A4202D3BB68002B16D1EB
:103A0400FB6800221A63FB68202283F83D20FB68D0
:103A1400002283F83E20FB681B6C43F02002FB6805
:103A24001A64FB68002283F83C20012307E0FB684A
:103A34001B685B6903F08003802BCAD100231846FE
:103A44001037BD4680BD80B584B000AFF860B96062
:103A54007A602DE0F86800F037F80346002B01D0B7
:103A640001232DE0BB68B3F1FF3F21D0FEF7B6F888
:103A740002467B68D31ABA689A4202D3BB68002B09
:103A840016D1FB6800221A63FB68202283F83D20CC
:103A9400FB68002283F83E20FB681B6C43F0200285
:103AA400FB681A64FB68002283F83C20012307E0CA
:103AB400FB681B685B6903F00403042BCAD1002371
:103AC40018461037BD4680BD80B483B000AF78601F
:103AD4007B681B685B6903F48063B3F5806F1BD15B
:103AE4007B681B686FF480625A617B6800221A63EA
:103AF4007B68202283F83D207B68002283F83E20E7
:103B04007B681B6C43F004027B681A647B680022A8
:103B140083F83C20012300E0002318460C37BD46FF
:103B24005DF8047B7047000080B586B000AF786014
:103B34007B68002B01D1012364E27B681B6803F0DE
:103B44000103002B75D0A34B9B6803F00C03042BDB
:103B54000CD0A04B9B6803F00C03082B12D19D4B97
:103B64005B6803F48003B3F5800F0BD1994B1B689A
:103B740003F40033002B5BD07B685B68002B57D1C8
:103B840001233FE27B685B68B3F5803F06D1914B2C
:103B94001B68904A43F4803313601DE07B685B68C4
:103BA400B3F5A02F0CD18B4B1B688A4A43F48023B6
:103BB4001360884B1B68874A43F4803313600BE01F
:103BC400844B1B68834A23F480331360814B1B6846
:103BD400804A23F4802313607B685B68002B13D036
:103BE400FDF7FCFF386108E0FDF7F8FF02463B698A
:103BF400D31A642B01D9032304E2764B1B6803F424
:103C04000033002BF0D014E0FDF7E8FF386108E042
:103C1400FDF7E4FF02463B69D31A642B01D9032361
:103C2400F0E16C4B1B6803F40033002BF0D100E08F
:103C340000BF7B681B6803F00203002B63D0654B55
:103C44009B6803F00C03002B0BD0624B9B6803F0C2
:103C54000C03082B1CD15F4B5B6803F48003002B1F
:103C640016D15C4B1B6803F00203002B05D07B6864
:103C7400DB68012B01D00123C4E1564B1B6823F000
:103C8400F8027B681B69DB00524913430B603AE07E
:103C94007B68DB68002B20D04F4B01221A60FDF7B4
:103CA4009DFF386108E0FDF799FF02463B69D31A8E
:103CB400022B01D90323A5E1464B1B6803F0020341
:103CC400002BF0D0434B1B6823F0F8027B681B6980
:103CD400DB00404913430B6015E03F4B00221A60A0
:103CE400FDF77CFF386108E0FDF778FF02463B6989
:103CF400D31A022B01D9032384E1364B1B6803F04A
:103D04000203002BF0D17B681B6803F00803002B2F
:103D140030D07B685B69002B16D0304B01221A60CF
:103D2400FDF75CFF386108E0FDF758FF02463B6988
:103D3400D31A022B01D9032364E1264B5B6F03F0F2
:103D44000203002BF0D015E0244B00221A60FDF78B
:103D540045FF386108E0FDF741FF02463B69D31A8D
:103D6400022B01D903234DE11A4B5B6F03F00203CD
:103D7400002BF0D17B681B6803F00403002B00F0D8
:103D8400A0800023FB75134B1B6C03F08053002BA6
:103D94000FD10023BB600F4B1B6C0E4A43F08053C2
:103DA40013640C4B1B6C03F08053BB60BB68012392
:103DB400FB750B4B1B6803F48073002B21D1084B5C
:103DC4001B68074A43F480731360FDF707FF3861EB
:103DD40011E000BF0038024000004742800E474215
:103DE40000700040FDF7FAFE02463B69D31A022B2D
:103DF40001D9032306E1854B1B6803F48073002B70
:103E0400F0D07B689B68012B06D1814B1B6F804AE5
:103E140043F0010313671CE07B689B68052B0CD1FE
:103E24007B4B1B6F7A4A43F004031367784B1B6F79
:103E3400774A43F0010313670BE0754B1B6F744A19
:103E440023F001031367724B1B6F714A23F00403C1
:103E540013677B689B68002B15D0FDF7BFFE3861A4
:103E64000AE0FDF7BBFE02463B69D31A41F28832F1
:103E7400934201D90323C5E0654B1B6F03F0020392
:103E8400002BEED014E0FDF7A9FE38610AE0FDF73F
:103E9400A5FE02463B69D31A41F28832934201D906
:103EA4000323AFE05A4B1B6F03F00203002BEED148
:103EB400FB7D012B05D1564B1B6C554A23F08053D7
:103EC40013647B689B69002B00F09B80504B9B68BC
:103ED40003F00C03082B5CD07B689B69022B41D157
:103EE4004C4B00221A60FDF779FE386108E0FDF7BB
:103EF40075FE02463B69D31A022B01D9032381E0E4
:103F0400434B1B6803F00073002BF0D17B68DA6924
:103F14007B681B6A1A437B685B6A9B011A437B6854
:103F24009B6A5B08013B1B041A437B68DB6A1B0624
:103F3400374913434B60374B01221A60FDF74EFE9D
:103F4400386108E0FDF74AFE02463B69D31A022BAA
:103F540001D9032356E02E4B1B6803F00073002B9A
:103F6400F0D04EE02B4B00221A60FDF737FE38618B
:103F740008E0FDF733FE02463B69D31A022B01D950
:103F840003233FE0224B1B6803F00073002BF0D1A6
:103F940037E07B689B69012B01D1012332E01C4B84
:103FA4005B68FB607B689B69012B28D0FB6803F48A
:103FB40080027B68DB699A4221D1FB6803F03F02EF
:103FC4007B681B6A9A421AD1FA6847F6C073134099
:103FD4007A68526A9201934211D1FB6803F4403229
:103FE4007B689B6A5B08013B1B049A4207D1FB6810
:103FF40003F070627B68DB6A1B069A4201D00123DE
:1040040000E0002318461837BD4680BD007000400C
:10401400003802406000474280B584B000AF786049
:1040240039607B68002B01D10123CCE0684B1B680D
:1040340003F007033A689A420CD9654B3A68D2B246
:104044001A70634B1B6803F007033A689A4201D065
:104054000123B8E07B681B6803F00203002B20D027
:104064007B681B6803F00403002B05D0594B9B6845
:10407400584A43F4E05393607B681B6803F00803D9
:10408400002B05D0534B9B68524A43F46043936022
:10409400504B9B6823F0F0027B689B684D491343A7
:1040A4008B607B681B6803F00103002B44D07B68A2
:1040B4005B68012B07D1474B1B6803F40033002BCB
:1040C40019D101237FE07B685B68022B03D07B68F6
:1040D4005B68032B07D13F4B1B6803F00073002B75
:1040E40009D101236FE03B4B1B6803F00203002B53
:1040F40001D1012367E0374B9B6823F003027B68FF
:104104005B68344913438B60FDF768FDF8600AE08F
:10411400FDF764FD0246FB68D31A41F288329342EC
:1041240001D903234FE02B4B9B6803F00C027B68FF
:104134005B689B009A42EBD1254B1B6803F0070395
:104144003A689A420CD2224B3A68D2B21A70204B87
:104154001B6803F007033A689A4201D0012332E056
:104164007B681B6803F00403002B08D0194B9B6881
:1041740023F4E0527B68DB68164913438B607B6849
:104184001B6803F00803002B09D0124B9B6823F42F
:1041940060427B681B69DB000E4913438B6000F0AF
:1041A40021F802460B4B9B681B0903F00F030A49D5
:1041B400CB5C22FA03F3094A1360094B1B681846C7
:1041C400FDF7C8FC002318461037BD4680BD00BF6C
:1041D400003C024000380240645E00080C000020ED
:1041E40010000020B0B584B000AF00217960002138
:1041F400F960002139600021B9605249896801F0F1
:104204000C0108290DD0082900F29480002902D05D
:10421400042903D08EE04C4BBB608EE04B4BBB605B
:104224008BE04849496801F03F0179604549496894
:1042340001F48001002924D04249496889090846CB
:104244004FF0000140F2FF144FF0000500EA0402B1
:1042540001EA05033D4901FB03F0002101FB02F1E2
:1042640044183A49A2FB0101631819467B681A46AF
:104274004FF00003FBF7ACFF02460B461346FB600E
:104284004AE0304B5B689B091A464FF0000340F24A
:10429400FF104FF0000102EA000403EA0105204682
:1042A40029464FF000024FF000034B0143EAD0636C
:1042B400420110461946001B61EB05014FF0000254
:1042C4004FF000038B0143EA90638201121A63EBFF
:1042D40001034FF000004FF00001D90041EA527190
:1042E400D00002460B46121945EB03034FF00000C1
:1042F4004FF00001990241EA9251900202460B46A6
:10430400104619467B681A464FF00003FBF760FF1E
:1043140002460B461346FB600A4B5B681B0C03F01A
:10432400030301335B003B60FA683B68B2FBF3F3C1
:10433400BB6002E0044BBB6000BFBB68184610378B
:10434400BD46B0BD003802400024F40040787D0131
:1043540080B400AF034B1B681846BD465DF8047B70
:10436400704700BF0C00002080B500AFFFF7F0FFDE
:104374000246054B9B689B0A03F007030349CB5C89
:1043840022FA03F3184680BD00380240745E000828
:1043940080B500AFFFF7DCFF0246054B9B685B0B63
:1043A40003F007030349CB5C22FA03F3184680BDEC
:1043B40000380240745E000880B582B000AF7860B7
:1043C4007B68002B01D101237BE07B685B6A002BB7
:1043D40008D17B685B68B3F5827F09D07B680022D3
:1043E400DA6105E07B6800221A617B6800225A6169
:1043F4007B6800229A627B6893F85130DBB2002B11
:1044040006D17B68002283F850207868FDF748FACB
:104414007B68022283F851207B681B681A687B68DA
:104424001B6822F040021A607B685B6803F48272A6
:104434007B689B6803F404431A437B68DB6803F4DA
:1044440000631A437B681B6903F002031A437B6809
:104454005B6903F001031A437B689B6903F40073EF
:104464001A437B68DB6903F038031A437B681B6AD1
:1044740003F0800342EA03017B689B6A03F4005261
:104484007B681B680A431A607B689B691B0C03F0FA
:1044940004017B685B6A03F010027B681B680A43B3
:1044A4005A607B681B68DA697B681B6822F40062C7
:1044B400DA617B6800225A657B68012283F8512007
:1044C400002318460837BD4680BD80B58CB000AFC8
:1044D400F860B9607A607B800123FB62002387F86F
:1044E4002B30FB6893F85030012B01D102238AE171
:1044F400FB68012283F85020FDF770FB7862FB68AB
:1045040093F8513087F82330FB685B68FB617B8844
:104514007B8397F82330012B0FD0FB69B3F5827F9F
:1045240007D1FB689B68002B03D197F82330042B39
:1045340003D0022387F82B305BE1BB68002B05D046
:104544007B68002B02D07B88002B03D1012387F8E2
:104554002B304EE1FB6893F85130DBB2042B03D0CF
:10456400FB68052283F85120FB6800225A65FB682A
:104574007A689A63FB687A88DA87FB687A889A870C
:10458400FB68BA681A63FB687A88DA86FB687A88FB
:104594009A86FB6800221A64FB6800225A64FB684E
:1045A4001B681B6803F04003402B07D0FB681B68A3
:1045B4001A68FB681B6842F040021A60FB68DB68FB
:1045C400B3F5006F78D1FB685B68002B02D07B8B5E
:1045D400012B66D1FB681B6B1A88FB681B68DA60C9
:1045E400FB681B6B9A1CFB681A63FB68DB8E9BB22F
:1045F400013B9AB2FB68DA8653E0FB681B689B6850
:1046040003F00203022B1BD1FB68DB8E9BB2002B51
:1046140016D0FB6A012B13D1FB681B6B1A88FB684D
:104624001B68DA60FB681B6B9A1CFB681A63FB68E7
:10463400DB8E9BB2013B9AB2FB68DA860023FB62F5
:10464400FB681B689B6803F00103012B19D1FB680D
:10465400DB8F9BB2002B14D0FB681B68DA68FB6805
:104664009B6B92B21A80FB689B6B9A1CFB689A63E3
:10467400FB68DB8F9BB2013B9AB2FB68DA870123AC
:10468400FB62FDF7ABFA02467B6AD31ABA6B9A4215
:1046940007D8BB6BB3F1FF3F03D0032387F82B305C
:1046A400A7E0FB68DB8E9BB2002BA6D1FB68DB8FF7
:1046B4009BB2002BA1D17CE0FB685B68002B02D08D
:1046C4007B8B012B6BD1FB681A6BFB681B680C336B
:1046D40012781A70FB681B6B5A1CFB681A63FB6820
:1046E400DB8E9BB2013B9AB2FB68DA8657E0FB682B
:1046F4001B689B6803F00203022B1CD1FB68DB8E52
:104704009BB2002B17D0FB6A012B14D1FB681A6BE8
:10471400FB681B680C3312781A70FB681B6B5A1CFD
:10472400FB681A63FB68DB8E9BB2013B9AB2FB68A1
:10473400DA860023FB62FB681B689B6803F00103B5
:10474400012B19D1FB68DB8F9BB2002B14D0FB68C3
:104754001B68DA68FB689B6BD2B21A70FB689B6BB0
:104764005A1CFB689A63FB68DB8F9BB2013B9AB2CD
:10477400FB68DA870123FB62FDF730FA02467B6AA5
:10478400D31ABA6B9A4203D8BB6BB3F1FF3F02D181
:10479400BB6B002B03D1032387F82B3029E0FB6884
:1047A400DB8E9BB2002BA2D1FB68DB8F9BB2002B6C
:1047B4009DD17A6AB96BF86800F0B2F80346002B11
:1047C40006D0012387F82B30FB6820225A6510E0BD
:1047D400FB689B68002B0BD100237B61FB681B6883
:1047E400DB687B61FB681B689B687B617B6900E01D
:1047F40000BFFB68012283F85120FB68002283F884
:10480400502097F82B3018463037BD4680BD000045
:1048140080B588B000AFF860B9603B601346FB71A7
:10482400FDF7DCF90246BB6A9B1A3A681344FB6144
:10483400FDF7D4F9B861394B1B685B011B0DFA69AC
:1048440002FB03F37B6154E03B68B3F1FF3F50D0BC
:10485400FDF7C4F90246BB69D31AFA699A4202D930
:10486400FB69002B3DD1FB681B685A68FB681B6819
:1048740022F0E0025A60FB685B68B3F5827F11D1D5
:10488400FB689B68B3F5004F04D0FB689B68B3F5E5
:10489400806F07D1FB681B681A68FB681B6822F0ED
:1048A40040021A60FB689B6AB3F5005F0FD1FB6896
:1048B4001B681A68FB681B6822F400521A60FB68C4
:1048C4001B681A68FB681B6842F400521A60FB6894
:1048D400012283F85120FB68002283F8502003232F
:1048E40017E07B69002B01D10023FB617B69013B4D
:1048F4007B61FB681B689A68BB681340BA689A427C
:104904000CBF01230023DBB21A46FB799A429BD1E8
:10491400002318462037BD4680BD00BF0C00002090
:1049240080B588B002AFF860B9607A601B4B1B6831
:104934001B4AA2FB03235B0D4FF47A7202FB03F3C1
:104944007B61FB685B68B3F5827F12D17B6800935F
:10495400BB6800228021F868FFF75AFF0346002B4A
:1049640016D0FB685B6D43F02002FB685A65032395
:104974000FE07B69002B0AD07B69013B7B61FB68FC
:104984001B689B6803F08003802BF2D000E000BF1B
:10499400002318461837BD4680BD00BF0C00002018
:1049A400819F5E1680B582B000AF78607B68002B73
:1049B40001D1012341E07B6893F83D30DBB2002B49
:1049C40006D17B68002283F83C207868FCF7B0FFAE
:1049D4007B68022283F83D207B681A687B68043375
:1049E4001946104600F08AFA7B68012283F84620B3
:1049F4007B68012283F83E207B68012283F83F20F4
:104A04007B68012283F840207B68012283F84120DF
:104A14007B68012283F842207B68012283F84320CB
:104A24007B68012283F844207B68012283F84520B7
:104A34007B68012283F83D20002318460837BD46D1
:104A440080BD000080B485B000AF78607B6893F8C7
:104A54003D30DBB2012B01D001233CE07B68022214
:104A640083F83D207B681B681E4A934218D07B68FC
:104A74001B68B3F1804F13D07B681B681A4A9342BA
:104A84000ED07B681B68194A934209D07B681B6867
:104A9400174A934204D07B681B68164A934211D18B
:104AA4007B681B689B6803F00703FB60FB68062BAD
:104AB40010D07B681B681A687B681B6842F001028F
:104AC4001A6007E07B681B681A687B681B6842F001
:104AD40001021A60002318461437BD465DF8047BB2
:104AE400704700BF0000014000040040000800407F
:104AF400000C00400040014080B582B000AF7860F7
:104B04007B681B681B6903F00203022B22D17B68BC
:104B14001B68DB6803F00203022B1BD17B681B6854
:104B24006FF002021A617B6801221A777B681B68A6
:104B34009B6903F00303002B03D0786800F0BFF9EE
:104B440005E0786800F0B1F9786800F0C2F97B6894
:104B540000221A777B681B681B6903F00403042B8B
:104B640022D17B681B68DB6803F00403042B1BD190
:104B74007B681B686FF004021A617B6802221A7753
:104B84007B681B689B6903F44073002B03D078682F
:104B940000F095F905E0786800F087F9786800F08E
:104BA40098F97B6800221A777B681B681B6903F0FD
:104BB4000803082B22D17B681B68DB6803F0080319
:104BC400082B1BD17B681B686FF008021A617B6895
:104BD40004221A777B681B68DB6903F00303002B4C
:104BE40003D0786800F06BF905E0786800F05DF9AF
:104BF400786800F06EF97B6800221A777B681B687E
:104C04001B6903F01003102B22D17B681B68DB683F
:104C140003F01003102B1BD17B681B686FF010028C
:104C24001A617B6808221A777B681B68DB6903F4C6
:104C34004073002B03D0786800F041F905E07868F0
:104C440000F033F9786800F044F97B6800221A77A1
:104C54007B681B681B6903F00103012B0ED17B6881
:104C64001B68DB6803F00103012B07D17B681B6819
:104C74006FF001021A61786800F00DF97B681B6817
:104C84001B6903F08003802B0ED17B681B68DB68F3
:104C940003F08003802B07D17B681B686FF08002D0
:104CA4001A61786800F0BCFA7B681B681B6903F022
:104CB4004003402B0ED17B681B68DB6803F0400384
:104CC400402B07D17B681B686FF040021A6178683B
:104CD40000F009F97B681B681B6903F02003202B93
:104CE4000ED17B681B68DB6803F02003202B07D1FF
:104CF4007B681B686FF020021A61786800F086FAFE
:104D040000BF0837BD4680BD80B584B000AF786071
:104D140039600023FB737B6893F83C30012B01D18D
:104D24000223B4E07B68012283F83C207B680222E2
:104D340083F83D207B681B689B68BB60BB6823F0DD
:104D44007703BB60BB6823F47F43BB607B681B684D
:104D5400BA689A603B681B68B3F5005F3ED0B3F550
:104D6400005F00F28780B3F5805F00F08680B3F5C2
:104D7400805F7FD8702B1AD0702B7BD8602B50D0DB
:104D8400602B77D8502B3CD0502B73D8402B58D065
:104D9400402B6FD8302B64D0302B6BD8202B60D0B5
:104DA400202B67D8002B5CD0102B5AD062E07B6894
:104DB40018683B6899683B685A683B68DB6800F090
:104DC40097F97B681B689B68BB60BB6843F07703FB
:104DD400BB607B681B68BA689A604FE07B681868A0
:104DE4003B6899683B685A683B68DB6800F080F967
:104DF4007B681B689A687B681B6842F480429A60EF
:104E04003CE07B6818683B6859683B68DB681A4675
:104E140000F0F4F87B681B685021184600F04DF947
:104E24002CE07B6818683B6859683B68DB681A4665
:104E340000F013F97B681B686021184600F03DF907
:104E44001CE07B6818683B6859683B68DB681A4655
:104E540000F0D4F87B681B684021184600F02DF957
:104E64000CE07B681A683B681B681946104600F022
:104E740024F903E00123FB7300E000BF7B680122F7
:104E840083F83D207B68002283F83C20FB7B184696
:104E94001037BD4680BD80B483B000AF786000BFDA
:104EA4000C37BD465DF8047B704780B483B000AF17
:104EB400786000BF0C37BD465DF8047B704780B452
:104EC40083B000AF786000BF0C37BD465DF8047B4B
:104ED400704780B483B000AF786000BF0C37BD4624
:104EE4005DF8047B704780B483B000AF786000BF86
:104EF4000C37BD465DF8047B7047000080B485B074
:104F040000AF786039607B681B68FB607B68344A5B
:104F140093420FD07B68B3F1804F0BD07B68314A4A
:104F2400934207D07B68304A934203D07B682F4A70
:104F3400934208D1FB6823F07003FB603B685B6815
:104F4400FA681343FB607B68254A93421BD07B6855
:104F5400B3F1804F17D07B68224A934213D07B6809
:104F6400214A93420FD07B68204A93420BD07B683E
:104F74001F4A934207D07B681E4A934203D07B6842
:104F84001D4A934208D1FB6823F44073FB603B68DD
:104F9400DB68FA681343FB60FB6823F080023B681C
:104FA4005B691343FB607B68FA681A603B689A6824
:104FB4007B68DA623B681A687B689A627B68084A95
:104FC400934203D13B681A697B681A637B680122A8
:104FD4005A6100BF1437BD465DF8047B704700BFBB
:104FE400000001400004004000080040000C0040A4
:104FF40000400140004401400048014080B487B0B3
:1050040000AFF860B9607A60FB681B6A7B61FB687B
:105014001B6A23F00102FB681A62FB689B693B610F
:105024003B6923F0F0033B617B681B013A6913433E
:105034003B617B6923F00A037B617A69BB68134394
:105044007B61FB683A699A61FB687A691A6200BFFE
:105054001C37BD465DF8047B704780B487B000AF51
:10506400F860B9607A60FB681B6A23F01002FB6881
:105074001A62FB689B697B61FB681B6A3B617B6905
:1050840023F470437B617B681B037A6913437B6160
:105094003B6923F0A0033B61BB681B013A691343DE
:1050A4003B61FB687A699A61FB683A691A6200BFDE
:1050B4001C37BD465DF8047B704780B485B000AFF3
:1050C400786039607B689B68FB60FB6823F0700341
:1050D400FB603A68FB68134343F00703FB607B689B
:1050E400FA689A6000BF1437BD465DF8047B7047C8
:1050F40080B487B000AFF860B9607A603B60FB6849
:105104009B687B617B6923F47F437B613B681A0264
:105114007B681A43BB6813437A6913437B61FB685A
:105124007A699A6000BF1C37BD465DF8047B7047FE
:1051340080B485B000AF786039607B6893F83C3008
:10514400012B01D1022350E07B68012283F83C202B
:105154007B68022283F83D207B681B685B68FB60E8
:105164007B681B689B68BB60FB6823F07003FB6073
:105174003B681B68FA681343FB607B681B68FA682A
:105184005A607B681B681C4A934218D07B681B6872
:10519400B3F1804F13D07B681B68184A93420ED03A
:1051A4007B681B68164A934209D07B681B68154AC2
:1051B400934204D07B681B68134A93420CD1BB68AA
:1051C40023F08003BB603B685B68BA681343BB6031
:1051D4007B681B68BA689A607B68012283F83D206B
:1051E4007B68002283F83C20002318461437BD4610
:1051F4005DF8047B704700BF0000014000040040DC
:1052040000080040000C00400040014080B483B01E
:1052140000AF786000BF0C37BD465DF8047B704773
:1052240080B483B000AF786000BF0C37BD465DF832
:10523400047B704780B582B000AF78607B68002B38
:1052440001D101233FE07B6893F83D30DBB2002BB2
:1052540006D17B68002283F83C207868FCF78EFB3B
:105264007B68242283F83D207B681B68DA687B68AE
:105274001B6822F40052DA60786800F029F87B6831
:105284001B681A697B681B6822F490421A617B6868
:105294001B685A697B681B6822F02A025A617B6882
:1052A4001B68DA687B681B6842F40052DA607B682A
:1052B40000221A647B68202283F83D207B68202228
:1052C40083F83E20002318460837BD4680BD000001
:1052D4002DE9F04F9FB000AFF866FB6E1B681B69A9
:1052E40023F44050FB6ED968FB6E1A6840EA010350
:1052F4001361FB6E9A68FB6E1B691A43FB6E5B6954
:105304001A43FB6EDB6913433B67FB6E1B68DB6868
:1053140023F4164121F00C01FB6E1A683B6F0B431A
:10532400D360FB6E1B685B6923F44070FB6E996964
:10533400FB6E1A6840EA01035361FB6E1A68C54BA1
:105344009A4204D0FB6E1A68C34B9A4203D1FFF70A
:105354001FF8786702E0FFF707F87867FB6EDB69F0
:10536400B3F5004F40F0B6807B6F1C464FF000054C
:1053740022462B46911839645B417B64D7E910239C
:10538400121945EB03034FF000004FF00001D90060
:1053940041EA5271D00002460B46111939666B413D
:1053A4007B66FB6E5B681A464FF000039118B96385
:1053B4005B41FB63D7E90E23D7E91801FAF708FF2D
:1053C40002460B46A54BA3FB02235B091E017B6F20
:1053D4001C464FF0000522462B46911839635B4169
:1053E4007B63D7E90C23121945EB03034FF000004C
:1053F4004FF00001D90041EA5271D00002460B4639
:105404001119B9656B41FB65FB6E5B681A464FF079
:1054140000039118B9625B41FB62D7E90A23D7E91B
:105424001601FAF7D5FE02460B468C4BA3FB02137A
:105434005B09642101FB03F3D31ADB003233874A8F
:10544400A2FB03235B095B0003F4F8731E447B6F28
:1054540018464FF0000102460B4694183C625B412B
:105464007B62D7E90823121841EB03034FF00004D1
:105474004FF00005DD0045EA5275D40022462B4664
:1054840014183C654B417B65FB6E5B681A464FF014
:1054940000039118B9615B41FB61D7E90623D7E9A1
:1054A4001401FAF795FE02460B466C4BA3FB02135C
:1054B4005B09642101FB03F3D31ADB003233674A2F
:1054C400A2FB03235B0903F00702FB6E1B68324453
:1054D4009A60B9E07B6F1C464FF0000522462B46CC
:1054E400911839615B417B61D7E90423121945EBBB
:1054F40003034FF000004FF00001D90041EA52715C
:10550400D00002460B4612EB040843EB0509FB6E80
:105514005B6818464FF000014FF000024FF00003A3
:105524008B0043EA9073820040464946FAF750FEE6
:1055340002460B46494BA3FB02235B091E017B6F0A
:1055440018464FF0000102460B469418BC605B41BC
:10555400FB60D7E90223121841EB03034FF0000468
:105564004FF00005DD0045EA5275D40022462B4673
:105574001418BC644B41FB64FB6E5B6818464FF027
:1055840000014FF000024FF000038B0043EA9073D8
:105594008200D7E91201FAF71BFE02460B462F4B95
:1055A400A3FB02135B09642101FB03F3D31A1B0160
:1055B40032332A4AA2FB03235B0903F0F0031E449F
:1055C4007B6F18464FF0000102460B4694183C606E
:1055D4005B417B60D7E90023121841EB03034FF0D2
:1055E40000044FF00005DD0045EA5275D400224660
:1055F4002B4612EB000A43EB010BFB6E5B6818466B
:105604004FF000014FF000024FF000038B0043EA1B
:105614009073820050465946FAF7DAFD02460B466B
:105624000E4BA3FB02135B09642101FB03F3D31AA2
:105634001B013233094AA2FB03235B0903F00F0267
:10564400FB6E1B6832449A6000BF7C37BD46BDE8E0
:10565400F08F00BF00100140001401401F85EB5182
:1056640070B50D4D0D4C641BA4100026A64209D143
:105674000B4D0C4C00F020F8641BA4100026A6422D
:1056840005D170BD55F8043B98470136EEE755F84F
:10569400043B98470136F2E78C5E00088C5E0008F4
:1056A4008C5E0008905E000802440346934200D1D9
:1056B400704703F8011BF9E7F8B500BFF8BC08BC54
:1056C4009E467047F8B500BFF8BC08BC9E467047BC
:1056D4006572726F65206E6F206E52463234000020
:1056E4006E5246323400000000000000000000004A
:1056F4000000000000000000000000000010001086
:105704000010001000100010000000100000000045
:10571400002800280028000000000000000000000D
:105724000000000000240024007C00240048007CC9
:1057340000480048000000000038005400500038C1
:1057440000140054005400380010000000200054DD
:105754000058003000280054001400080000000025
:1057640000100028002800100034004800480034CD
:1057740000000000001000100010000000000000F5
:1057840000000000000000000008001000200020BD
:10579400002000200020002000100008002000103D
:1057A4000008000800080008000800080010002095
:1057B4000010003800100028000000000000000065
:1057C400000000000000000000100010007C001029
:1057D40000100000000000000000000000000000B5
:1057E4000000000000000010001000100000000085
:1057F400000000000000003800000000000000006D
:105804000000000000000000000000000000001084
:105814000000000000080008001000100010001034
:105824000020002000000000003800440044005420
:105834000044004400440038000000000010003020
:1058440000500010001000100010001000000000B4
:105854000038004400440004000800100020007CCC
:105864000000000000380044000400180004000494
:105874000044003800000000000800180028002838
:105884000048007C0008000800000000007C004084
:1058940000400078000400040044003800000000C8
:1058A40000380044004000780044004400440038BC
:1058B40000000000007C000400080010001000201C
:1058C400002000200000000000380044004400389C
:1058D4000044004400440038000000000038004444
:1058E40000440044003C0004004400380000000070
:1058F4000000000000100000000000000000001084
:105904000000000000000000000000100000000083
:10591400000000100010001000000000000C003017
:1059240000400030000C00000000000000000000F7
:105934000000007C0000007C00000000000000006B
:10594400000000000060001800040018006000005F
:10595400000000000038004400040008001000109B
:10596400000000100000000000380044004C005407
:10597400005C0040004000380000000000100028D7
:10598400002800280028007C004400440000000097
:105994000078004400440078004400440044007847
:1059A4000000000000380044004000400040004077
:1059B4000044003800000000007000480044004427
:1059C400004400440048007000000000007C0040D7
:1059D4000040007C004000400040007C00000000CB
:1059E400007C00400040007800400040004000403F
:1059F400000000000038004400400040005C004407
:105A04000044003800000000004400440044007CCE
:105A1400004400440044004400000000003800102A
:105A240000100010001000100010003800000000EA
:105A340000040004000400040004000400440038CE
:105A4400000000000044004800500060005000487E
:105A540000480044000000000040004000400040B6
:105A6400004000400040007C000000000044006C46
:105A7400006C005400440044004400440000000052
:105A840000440064006400540054004C004C004482
:105A94000000000000380044004400440044004476
:105AA4000044003800000000007800440044004432
:105AB400007800400040004000000000003800442E
:105AC4000044004400440044005400380004000032
